:020000040800F2
:10000000E40800208901000821060008F501000825
:1000100025060008290600082D060008000000003B
:100020000000000000000000000000003106000891
:100030003506000800000000390600083D060008EB
:10004000F5010008F5010008F5010008F5010008B8
:10005000F5010008F5010008F5010008F5010008A8
:10006000F5010008F5010008F5010008F501000898
:10007000F5010008F5010008F5010008F501000888
:10008000F5010008F5010008F5010008F501000878
:10009000F5010008F5010008F5010008F501000868
:1000A000F5010008F5010008F5010008F501000858
:1000B00061060008F5010008F5010008F5010008D7
:1000C000F5010008F5010008F5010008F501000838
:1000D000F5010008F5010008F5010008F501000828
:1000E000F5010008F5010008F5010008F501000818
:1000F000F5010008F5010008F5010008F501000808
:10010000F5010008F5010008F5010008F5010008F7
:10011000F5010008F5010008F5010008F5010008E7
:10012000F5010008F5010008F5010008F5010008D7
:10013000F5010008F5010008F5010008F5010008C7
:10014000F5010008F5010008F5010008F5010008B7
:10015000F5010008F5010008F5010008F5010008A7
:10016000F5010008F5010008F5010008F501000897
:10017000F5010008F5010008F5010008F501000887
:10018000F5010008F501000808B5154B154A9A421B
:1001900011D240F6C842C0F6000240F20003C2F29B
:1001A000000340F22400C2F2000052F8041B43F89E
:1001B000041B8342F9D30C480C494FF000028842DB
:1001C000B8BF40F8042BFADBDFF82400016841F4E3
:1001D0007001016000F05CFB00F044F908BD00BF55
:1001E000240000200000002024000020E400002063
:1001F00088ED00E0FEE700BF2DE9F8434FF0010075
:10020000014600F0E9F94FF004004FF0010100F061
:10021000E3F94FF008004FF0010100F0DDF940F282
:10022000C804C2F200044FF0FF09C4F800904FF078
:10023000010884F804804FF00005A5714FF0030712
:100240006771E5712E46C4F202063046214600F081
:100250009BFAC4F8009084F80480A5716771E57179
:100260004FF40060C4F20200214600F08DFA4FF412
:100270007063236084F80480A5716771E57130466E
:10028000214600F081FA4FF01803236084F80480BF
:10029000A5716771E5714FF44060C4F20200214618
:1002A00000F072FA4FF4805323602571677184F86F
:1002B00007803046214600F067FA4FF40043236080
:1002C00027716771E5713046214600F05DFABDE89F
:1002D000F88300BF30B583B04FF01C038DF80430B5
:1002E0004FF000058DF805504FF001048DF80640E1
:1002F0008DF8074001A800F067FB2046214600F07A
:100300007DF940F22801C2F2000140F2E7334B6070
:100310004FF029030B800D814D804FF0804000F09D
:1003200097FB4FF080402146224600F0ADFC4FF095
:100330008040214600F0F2FB03B030BD38B54FF0ED
:1003400002004FF0010100F059F94FF004004FF0A6
:10035000010100F041F940F2C801C2F200014FF47E
:1003600080730B604FF002050D714FF003034B716A
:100370004FF000038B714FF00103CB714FF4006419
:10038000C4F20204204600F0FFF920464FF00801B5
:100390002A4600F061FA38BDF8B540F21003C2F207
:1003A00000031A684FEA921242F66353C0F23E53BA
:1003B000A3FB02134FEA931303F1FF3340F228012A
:1003C000C2F2000148600B804FF000060E814E80A3
:1003D0004FF48065C4F20005284600F039FB40F276
:1003E000B404C2F200044FF0600323804FF0010711
:1003F0006780A660A6812846214600F09FFB28461C
:100400004FF0080100F02CFC6780A66028462146CA
:1004100000F0DAFB28464FF0080100F02BFC2846DC
:10042000394600F06BFB2846394600F077FBF8BDF3
:10043000012805D14FF48063C4F20003596370476B
:10044000022805D14FF48063C4F20003996370471A
:1004500003284FF48063C4F200030CBFD96319640E
:10046000704700BF70B540F2D004C2F200042046CD
:1004700000F046F8626843F22D43CFF6A913A3FBC0
:1004800002134FEAD32202F1FF324EF21003CEF2F2
:1004900000035A604FF46D42CEF200024FF0F001BB
:1004A00082F823104FF000029A604FF007021A60A2
:1004B000FFF710FFFFF742FF4FF06400FFF76CFFFC
:1004C0004FF003004FF03201FFF7B2FFFFF794FE49
:1004D0004FF0FF0000F036F94FF0FF054FF06404D5
:1004E0004FF00006284600F02DF9204600F040F9B4
:1004F000304600F027F9204600F03AF9F2E700BF55
:1005000010B44FF46053C4F202039B6803F00C0371
:10051000042B09D0082B0DD0002B38D14FF41053E9
:10052000C0F2F403036037E047F64003C0F27D13E6
:10053000036031E04FF46053C4F202035C685A6810
:1005400002F03F0214F4800F4FF46053C4F2020330
:100550005B68C3F3881319BF47F64004C0F27D14EB
:100560004FF41054C0F2F404B4FBF2F101FB03F1B8
:100570004FF46053C4F202035A68C2F3014202F11D
:1005800001024FEA4202B1FBF2F3036004E04FF4D0
:100590001053C0F2F40303604FF46052C4F202023D
:1005A0009168C1F3031140F20003C2F20003595CE9
:1005B000046824FA01F141609468C4F382241C5D4C
:1005C00021FA04F484609268C2F342329B5C21FAFF
:1005D00003F1C16010BC704739B14FF46053C4F2ED
:1005E00002031A6B1043186370474FF46053C4F250
:1005F00002031A6B22EA00001863704739B14FF406
:100600006053C4F202031A6C1043186470474FF42D
:100610006053C4F202031A6C22EA000018647047A7
:10062000704700BFFEE700BFFEE700BFFEE700BF68
:10063000704700BF704700BF704700BF40F2E00343
:10064000C2F200031B889BB243B140F2E003C2F246
:1006500000031A8802F1FF3292B21A80704700BF7D
:10066000F8B54FF080404FF0010100F019FB002871
:1006700066D04FF080404FF0010100F01FFB4FF4B7
:100680000060C4F202004FF0000100F0E3F84FF008
:100690000000C4F202004FF4006100F0D7F84FF000
:1006A00000042546C4F2020540F22406C2F2000608
:1006B00040F27407C2F20007284600F0C3F833780E
:1006C00004EBC303FB5C00F47F411943284600F0B0
:1006D000C1F8284600F0B6F820F4E06141EA0421B0
:1006E00089B2284600F0B6F804F10104082CE3D1E1
:1006F0004FF00004C4F2020420464FF4E06100F021
:10070000A7F820464FF4006100F0A2F84FF4006013
:10071000C4F2020040F22404C2F2000423784FF035
:10072000010101FA03F189B200F094F8237803F192
:100730000103DBB22370082B02D14FF000022270BC
:10074000F8BD00BF4FF0000240F27401C2F2000198
:1007500001F8320001EBC20358709870D87018711C
:1007600058719871D87102F10102082AF0D17047CE
:1007700040F2E003C2F2000318801A4613889BB2CD
:10078000002BFBD1704700BF2DE9F0074FF00002AE
:1007900013464FF001074FF0030C1E4607FA03F40F
:1007A0000D682540A54243D1D0F8009090460CFA40
:1007B00002F46FEA040404EA0909C0F80090D0F8D2
:1007C00000A091F8049009FA02F949EA0A09C0F870
:1007D000009091F8049009F1FF395FFA89F9B9F1B5
:1007E000010F1CD8D0F8089004EA0909C0F8089055
:1007F000D0F808A091F8059009FA02F949EA0A0927
:10080000C0F80890D0F8049029EA050545604568CD
:1008100091F8069009FA03F6B6B22E434660C56811
:100820002C40C460C568CC7904FA08F42C43C46039
:1008300003F1010302F10202102BAED1BDE8F00773
:10084000704700BF406980B2704700BF01837047A6
:10085000418370474161704730B401F007034FEAAC
:1008600083034FEAD10101F1080150F821504FF004
:100870000F0404FA03F425EA040440F8214050F878
:10088000214002FA03F3234340F8213030BC704783
:1008900082B04FF46D43CEF20003D3F8882042F4C7
:1008A0007002C3F888204FF46053C4F202031A6840
:1008B00042F001021A604FF000029A60196821F0BC
:1008C000847121F48031196043F21001C2F20041B9
:1008D0005960196821F480211960DA600092019250
:1008E0001A6842F480321A604FF46052C4F2020275
:1008F000136803F400330193009B03F10103009399
:10090000019B1BB9009BB3F5A06FF1D14FF460536D
:10091000C4F202031B6813F4003F14BF0123002339
:100920000193019B012B46D14FF46053C4F20203A3
:100930001A6C42F080521A644FF4E042C4F2000292
:10094000116841F4804111609A689A609A6842F493
:1009500000429A609A6842F4A0529A6045F21942A5
:10096000C0F240725A601A6842F080721A604FF406
:100970006052C4F20202136813F0007FFBD04FF400
:100980007053C4F2020340F205621A604FF46053E0
:10099000C4F202039A6822F003029A609A6842F055
:1009A00002029A604FF46052C4F20202936803F0AC
:1009B0000C03082BFAD14FF46D43CEF200034FF035
:1009C00000629A6002B0704710B4C3786BB34FF402
:1009D0006D43CEF20003DB686FEA0303C3F3022327
:1009E0004178C3F10402D2B201FA02F2D2B24FF05E
:1009F0000F0141FA03F18478214011434FEA0111BC
:100A0000C9B202784FF46143CEF200039A1882F81B
:100A1000001302784FEA521102F01F024FF001005A
:100A200000FA02F243F8212010E003784FEA531253
:100A300003F01F034FF0010101FA03F14FF461438A
:100A4000CEF2000302F1200243F8221010BC7047DE
:100A500003889BB24FF00002C4F2010290421AD008
:100A60004FF48062C4F20102904214D0B0F1804F82
:100A700011D04FF48062C4F2000290420BD04FF4C8
:100A80000062C4F20002904205D04FF44062C4F20A
:100A90000002904204D14FF68F721A404B881343E4
:100AA0004FF48052C4F20002904221D04FF4A05281
:100AB000C4F2000290421BD04FF6FF421A400B894D
:100AC0001A4302804B68C3620B8803854FF0000312
:100AD000C4F20103984205D04FF48063C4F20103CD
:100AE000984201D18B7A03864FF0010383827047CD
:100AF00003804B68C3620B880385EDE729B1038847
:100B00009BB243F0800303807047038823F0800387
:100B10004FEA03434FEA13430380704729B1038828
:100B20009BB243F0010303807047038823F0010365
:100B30004FEA03434FEA13430380704770B4038CBA
:100B400023F001034FEA03434FEA13430384038C6A
:100B50008588ADB2028B22F073024FEA02424FEA5F
:100B600012420C88224323F002034FEA03434FEA68
:100B700013434E888C893443A4B223434FF00004BE
:100B8000C4F20104A04205D04FF48064C4F2010411
:100B9000A04211D14FF6F7741C40CB891C434FF68D
:100BA000FB7323408C8823434FF6FF442C404E8A2E
:100BB0000D8A3543ADB22543858002838A6842633E
:100BC000038470BC704700BF30B4038C23F480737F
:100BD0004FEA03434FEA13430384038C8488A4B28F
:100BE000828B22F073024FEA02424FEA12420D88D2
:100BF0002A4323F400734FEA03434FEA13438D89DA
:100C000043EA05234D8843EA05239BB24FF00005D4
:100C1000C4F20105A84205D04FF48065C4F2010575
:100C2000A84216D14FF2FF751D40CB8945EA032536
:100C30004FF6FF332B408D8843EA05239BB24CF6D9
:100C4000FF7525400C8A45EA04154C8A45EA0414D0
:100C5000A4B2848082838A68C263038430BC7047F4
:100C6000038B23F008034FEA03434FEA13430B437C
:100C700003837047838B23F008034FEA03434FEA53
:100C800013430B438383704722B183899BB219437B
:100C90008181704783899BB223EA0101818170477A
:100CA000038A828992B2194204D011420CBF0020FB
:100CB000012070474FF00000704700BF6FEA01014C
:080CC00089B20182704700BFF8
:100CC80000000000010203040102030406070809EA
:100CD800007A030A0000000000000000010203047B
:040CE80006070809EA
:0400000508000000EF
:00000001FF
