:020000040800F2
:100000001C0D0020890100081D070008E5010008FB
:100010002107000825070008290700080000000044
:100020000000000000000000000000002D07000894
:1000300031070008000000003507000839070008F4
:10004000E5010008E5010008E5010008E5010008F8
:10005000E5010008E5010008E5010008E5010008E8
:10006000E5010008E5010008E5010008E5010008D8
:10007000E5010008E5010008E5010008E5010008C8
:10008000E5010008E5010008E5010008E5010008B8
:10009000E5010008E5010008E5010008E5010008A8
:1000A000E5010008E5010008E5010008E501000898
:1000B0005D070008E5010008E5010008E50100080A
:1000C000E5010008E5010008E5010008E501000878
:1000D000E5010008E5010008E5010008E501000868
:1000E000E5010008E5010008E5010008E501000858
:1000F000E5010008E5010008E5010008E501000848
:10010000E5010008E5010008E5010008E501000837
:10011000E5010008E5010008E5010008E501000827
:10012000E5010008E5010008E5010008E501000817
:10013000E5010008E5010008E5010008E501000807
:10014000E5010008E5010008E5010008E5010008F7
:10015000E5010008E5010008E5010008E5010008E7
:10016000E5010008E5010008E5010008E5010008D7
:10017000E5010008E5010008E5010008E5010008C7
:10018000E5010008E501000808B5124B124A9A4241
:1001900011D241F2F832C0F6000240F20003C2F27E
:1001A000000340F25440C2F2000052F8041B43F82E
:1001B000041B8342F9D3094809494FF000028842E1
:1001C000B8BF40F8042BFADB00F0BAFE00F0B4F937
:1001D00008BD00BF5404002000000020540400208B
:1001E0001C050020FEE700BF2DE9F8434FF0010099
:1001F000014600F05DFA4FF004004FF0010100F0FD
:1002000057FA4FF008004FF0010100F051FA40F2A8
:100210000054C2F200044FF0FF09C4F800904FF000
:10022000010884F804804FF00005A5714FF0030722
:100230006771E5712E46C4F202063046214600F091
:10024000FBFDC4F8009084F80480A5716771E57126
:100250004FF40060C4F20200214600F0EDFD4FF4BF
:100260007063236084F80480A5716771E57130467E
:10027000214600F0E1FD4FF01803236084F804806C
:10028000A5716771E5714FF44060C4F20200214628
:1002900000F0D2FD4FF4805323602571677184F81C
:1002A00007803046214600F0C7FDBDE8F88300BF57
:1002B00030B583B04FF01C038DF804304FF00005CB
:1002C0008DF805504FF001048DF806408DF8074079
:1002D00001A800F0FFFE2046214600F0FBF940F2A5
:1002E0006041C2F2000140F2E7334B604FF0290356
:1002F0000B800D814D804FF0804000F02FFF4FF0BC
:1003000080402146224601F045F84FF080402146CA
:1003100000F08AFF03B030BD38B54FF002004FF057
:10032000010100F0D7F94FF004004FF0010100F097
:10033000BFF940F20051C2F200014FF480730B602C
:100340004FF002050D714FF003034B714FF00003A6
:100350008B714FF00103CB714FF40064C4F20204BF
:10036000204600F069FD20464FF008012A4600F0C3
:10037000CBFD38BDF8B540F24043C2F200031A6825
:100380004DF68363C4F21B33A3FB02134FEAD3433E
:1003900003F1FF3340F26041C2F2000148600B807C
:1003A0004FF000060E814E804FF48065C4F20005C8
:1003B000284600F0D3FE40F2EC44C2F200044FF0B5
:1003C000600323804FF001076780A660A68128465E
:1003D000214600F039FF28464FF0080100F0C6FF23
:1003E0006780A6602846214600F074FF28464FF03B
:1003F000080100F0C5FF2846394600F005FF2846F1
:10040000394600F011FFF8BD012805D14FF4806393
:10041000C4F2000359637047022805D14FF480638A
:10042000C4F200039963704703284FF48063C4F259
:1004300000030CBFD9631964704700BF70B59CB04E
:100440004FF00200C0F240004FF0010100F030F91F
:100450004FF480704FF0010100F04EF94FF08063CF
:10046000039342F24C03C4F20103049340F2544359
:10047000C2F2000305934FF0000406944FF001060A
:100480000796089409944FF400630A934FF40053BD
:100490000B934FF480730C934FF400330D930E9431
:1004A0000F961094119446F21045C4F202052846A6
:1004B00003A900F0D7FD2846314600F0FFFD019664
:1004C0004FF003038DF808308DF80B404FF4806037
:1004D000C4F2020001A900F0AFFC1294139414942A
:1004E000159412A800F0D4F916948DF85C408DF89C
:1004F0005D60189419941A948DF86C604FF400554F
:10050000C4F20105284616A900F09AF928464FF0D2
:1005100008013246234600F0DDF92846314600F056
:100520003FFA2846314600F02FFA2846314600F0BF
:10053000C5F91CB070BD00BF38B540F20854C2F216
:100540000004204600F048F8626843F22D43CFF6DD
:10055000A913A3FB02134FEAD32202F1FF324EF29A
:100560001003CEF200035A604FF46D42CEF2000247
:100570004FF0F00182F823104FF000049C604FF020
:1005800007021A60FFF794FEFFF7C6FE4FF0640003
:10059000FFF7F0FE4FF003004FF01401FFF734FFB8
:1005A000FFF722FEFFF74AFF4FF0FF0000F02EFC9E
:1005B00040F25443C2F20003188880B200F018FCE5
:1005C0004FF0030504F10504A1B22846FFF71CFF14
:1005D000642C08BF0024F5E710B44FF46053C4F254
:1005E00002039B6803F00C03042B09D0082B0DD0E9
:1005F000002B38D14FF41053C0F2F403036037E0FE
:1006000047F64003C0F27D13036031E04FF46053BE
:10061000C4F202035C685A6802F03F0214F4800FCF
:100620004FF46053C4F202035B68C3F3881319BF2D
:1006300047F64004C0F27D144FF41054C0F2F404A5
:10064000B4FBF2F101FB03F14FF46053C4F2020377
:100650005A68C2F3014202F101024FEA4202B1FBC1
:10066000F2F3036004E04FF41053C0F2F4030360AC
:100670004FF46052C4F202029168C1F3031140F2D8
:100680000003C2F20003595C046824FA01F14160DE
:100690009468C4F382241C5D21FA04F48460926897
:1006A000C2F342329B5C21FA03F1C16010BC704777
:1006B00039B14FF46053C4F202031A6B104318634C
:1006C00070474FF46053C4F202031A6B22EA000031
:1006D0001863704739B14FF46053C4F202031A6CC7
:1006E0001043186470474FF46053C4F202031A6C4D
:1006F00022EA00001864704739B14FF46053C4F225
:1007000002035A6C1043586470474FF46053C4F2AC
:1007100002035A6C22EA000058647047704700BF19
:10072000FEE700BFFEE700BFFEE700BF704700BF67
:10073000704700BF704700BF40F21853C2F2000379
:100740001B889BB243B140F21853C2F200031A88CF
:1007500002F1FF3292B21A80704700BFF8B54FF035
:1007600080404FF0010100F021FE002866D04FF0DC
:1007700080404FF0010100F027FE4FF40060C4F20A
:1007800002004FF0000100F0BDFB4FF00000C4F28A
:1007900002004FF4006100F0B1FB4FF00004254669
:1007A000C4F2020540F25C46C2F2000640F2AC47D9
:1007B000C2F20007284600F09DFB337804EBC30328
:1007C000FB5C00F47F411943284600F09BFB284660
:1007D00000F090FB20F4E06141EA042189B2284650
:1007E00000F090FB04F10104082CE3D14FF0000469
:1007F000C4F2020420464FF4E06100F081FB204681
:100800004FF4006100F07CFB4FF40060C4F2020082
:1008100040F25C44C2F2000423784FF0010101FA77
:1008200003F189B200F06EFB237803F10103DBB220
:100830002370082B02D14FF000022270F8BD00BFD8
:1008400030B4436823F0407323F480730A68134381
:100850000A7943EA022343608468CA680B691A4331
:100860008D682A434FF2FD73CCF2FF0323401343FC
:100870004A7943EA42038360C26A22F470020B7D24
:1008800003F1FF33DBB242EA0353C36230BC70476B
:1008900010B44FF40C52C4F20102516843F2E00369
:1008A000CFF6FC730B404468016821438468214300
:1008B000C06801430B43536010BC704721B183688B
:1008C00043F0010383607047836823F00103836072
:1008D000704700BF70B4092910D9C66801EB410404
:1008E000A4F11E044FF0070505FA04F526EA0505F4
:1008F00003FA04F445EA0403C3600DE0066901EB62
:1009000041044FF0070505FA04F526EA050503FA48
:1009100004F445EA04030361062A10D8446B02F18B
:10092000FF3202EB82024FF01F0303FA02F324EAC4
:10093000030301FA02F143EA0102426322E00C2AB6
:1009400010D8046B02EB8202A2F123024FF01F03C6
:1009500003FA02F324EA030301FA02F143EA010273
:1009600002630FE0C46A02EB8202A2F141024FF07F
:100970001F0303FA02F324EA030301FA02F143EA34
:100980000102C26270BC704721B1836843F4807376
:1009900083607047836823F480738360704700BF6F
:1009A00021B1836843F4007383607047836823F444
:1009B00000738360704700BF01704FF00100704703
:1009C00003460A784AB14FF000001A5400F10100C2
:1009D00011F8012F002AF8D170474FF0000070473E
:1009E0002DE9F84307460E469146984602F1FF323C
:1009F000092B04D8002A10DC4FF000091DE04CF64A
:100A0000CD43CCF6CC43A3FB08134FEAD3033146C6
:100A1000FFF7E6FF81463F180FE000F1FF354D4438
:100A2000044620463146FFF7C7FF04F10104AC42FB
:100A3000F7D109F1FF33FF1899464CF6CD43CCF6B8
:100A4000CC43A3FB08234FEAD30303EB8303A8EBB8
:100A5000430101F13001C9B23846FFF7ADFF484408
:100A6000BDE8F8832DE9F84F07460E469A4683EA1B
:100A7000E378A8EBE37802F1FF39B8F1090F10D958
:100A8000002B4CF6CD43CCF6CC43A3FB08234FEA16
:100A9000D303B8BF5B424A46FFF7E4FF81463F18E5
:100AA00021E0002BB8BF09F1FF39B9F1000F0DDDCE
:100AB000CB4600EB0905044620463146FFF77CFF94
:100AC00004F10104AC42F7D15F4401E04FF00009AA
:100AD000BAF1000F07DA38464FF02D01FFF76CFF2F
:100AE000814407F101074CF6CD41CCF6CC41A1FB86
:100AF00008314FEAD10101EB8101A8EB410101F17D
:100B00003001C9B23846FFF757FF4844BDE8F88FB7
:100B10002DE9F04782B007460E4690469A46DDF82A
:100B2000289002F1FF325FEA191304D1002A09DC90
:100B30004FF0000816E000935346FFF7E9FF8046A8
:100B40003F180FE000F1FF3545440446204631468A
:100B5000FFF732FF04F10104AC42F7D108F1FF3393
:100B6000FF18984609F00F03092B05D803F130014F
:100B70003846FFF721FF11E0BAF1000F07D009F066
:100B80000F0101F137013846FFF716FF06E009F0C3
:100B90000F0101F157013846FFF70EFF08F1010080
:100BA00002B0BDE8F08700BF2DE9F04F83B00646E4
:100BB0000F4610B14FF0000101704FF000054FF0EB
:100BC000300B4FF020084FF025098EE0252906D084
:100BD00006F8011B02F1010205F1010585E05178DB
:100BE000252906D106F8019B02F1020205F1010553
:100BF0007BE0302919BF541C4146941C594620788B
:100C0000A0F13002D2B2092A16D8A4464FF0000251
:100C100002EB8202A0F1300000EB420202F0FF0280
:100C200004F101041CF8010FA0F1300A5FFA8AFAFE
:100C3000BAF1090FECD901E04FF0000202EB050C0C
:100C400067453CBFC5EB0702D2B2A0F1580020288F
:100C50005ED8DFE800F02C5D5D5D5D5D5D5D5D5D36
:100C60005D3F115D5D5D5D115D5D5D5D5D5D5D5D6A
:100C70005D375D195D5D210003F1040A1B68304694
:100C8000FFF7F0FE53462CE003F1040A1B683046E0
:100C9000FFF7A6FE534624E003F1040A1B68009305
:100CA00030464FF00003FFF733FF534619E003F1DE
:100CB000040A1B68009330464FF00103FFF728FF3A
:100CC00053460EE003F1040A19683046FFF778FE38
:100CD000534606E003F1040A19783046FFF76CFE2C
:100CE000534604F1010236182D18117819B1BD428E
:100CF000FFF46CAF05E0AF4203D94FF0000333704F
:100D000008E04FF0000306F8013C05F1FF3501E073
:100D10004FF0FF35284603B0BDE8F08F10B50C4604
:100D200013464FF064012246FFF73EFF10BD00BF9F
:100D300040F21003C2F200031B689A688A4204D092
:100D4000DB688B4218BF4FF0FF30704770B5054627
:100D50000E46007870B14FF000043146FFF7E8FF0F
:100D6000B0F1FF3F09D004F1010415F8010F00288C
:100D7000F3D104E04FF0000401E04FF0FF342046CF
:100D800070BD00BFF0B5A3B004468E4617466D4651
:100D900041F2D436C0F600060FCE0FC50FCE0FC5F8
:100DA00033682B6009A871463A46FFF7B7FF6328FE
:100DB00009DD40F21003C2F200031B68D9686846DF
:100DC000FFF7C4FFFEE709A82146FFF7BFFF23B0E6
:100DD000F0BD00BF08B503460A4640F21001C2F25A
:100DE0000001096888681946FFF7CCFF08BD00BFFD
:100DF0000FB400B583B004A951F8040B0191FFF7BB
:100E0000E9FF03B05DF804EB04B070474FF0000257
:100E100040F2AC41C2F2000101F8320001EBC20322
:100E200058709870D870187158719871D87102F113
:100E30000102082AF0D170472DE9F0074FF00002B7
:100E400013464FF001074FF0030C1E4607FA03F458
:100E50000D682540A54243D1D0F8009090460CFA89
:100E600002F46FEA040404EA0909C0F80090D0F81B
:100E700000A091F8049009FA02F949EA0A09C0F8B9
:100E8000009091F8049009F1FF395FFA89F9B9F1FE
:100E9000010F1CD8D0F8089004EA0909C0F808909E
:100EA000D0F808A091F8059009FA02F949EA0A0970
:100EB000C0F80890D0F8049029EA05054560456817
:100EC00091F8069009FA03F6B6B22E434660C5685B
:100ED0002C40C460C568CC7904FA08F42C43C46083
:100EE00003F1010302F10202102BAED1BDE8F007BD
:100EF000704700BF406980B2704700BF01837047F0
:100F0000418370474161704730B401F007034FEAF5
:100F100083034FEAD10101F1080150F821504FF04D
:100F20000F0404FA03F425EA040440F8214050F8C1
:100F3000214002FA03F3234340F8213030BC7047CC
:100F400082B04FF46053C4F202031A6842F0010207
:100F50001A604FF000029A60196821F0847121F440
:100F60008031196043F21001C2F2004159601968E2
:100F700021F480211960DA60009201921A6842F42B
:100F800080321A604FF46052C4F20202136803F414
:100F900000330193009B03F101030093019B1BB9F4
:100FA000009BB3F5A06FF1D14FF46053C4F202037C
:100FB0001B6813F4003F14BF012300230193019B1E
:100FC000012B46D14FF46053C4F202031A6C42F075
:100FD00080521A644FF4E042C4F20002116841F4F6
:100FE000804111609A689A609A6842F400429A605F
:100FF0009A6842F4A0529A6045F21942C0F24072D7
:101000005A601A6842F080721A604FF46052C4F25B
:101010000202136813F0007FFBD04FF47053C4F248
:10102000020340F205621A604FF46053C4F20203F7
:101030009A6822F003029A609A6842F002029A606B
:101040004FF46052C4F20202936803F00C03082BC1
:10105000FAD14FF46D43CEF200034FF000629A6074
:1010600002B0704710B4026848F23F03CFF21C038D
:101070001340CC680A6822434C6922438C6922439E
:10108000CC6922430C6A22434C6A22438C6A224375
:101090004C6B22438C6B224313430360426922F062
:1010A00007020C6BCB6A2343134343610B69436014
:1010B0004B6883608B68C36010BC704721B10368C4
:1010C00043F0010303607047036823F001030360EA
:1010D000704700BF10B4C3786BB34FF46D43CEF2CA
:1010E0000003DB686FEA0303C3F302234178C3F113
:1010F0000402D2B201FA02F2D2B24FF00F0141FA69
:1011000003F18478214011434FEA0111C9B20278FA
:101110004FF46143CEF200039A1882F8001302786C
:101120004FEA521102F01F024FF0010000FA02F2E2
:1011300043F8212010E003784FEA531203F01F0315
:101140004FF0010101FA03F14FF46143CEF20003C5
:1011500002F1200243F8221010BC704703889BB2B2
:101160004FF00002C4F2010290421AD04FF48062A4
:10117000C4F20102904214D0B0F1804F11D04FF46C
:101180008062C4F2000290420BD04FF40062C4F2BD
:101190000002904205D04FF44062C4F20002904237
:1011A00004D14FF68F721A404B8813434FF480528C
:1011B000C4F20002904221D04FF4A052C4F20002C7
:1011C00090421BD04FF6FF421A400B891A4302800F
:1011D0004B68C3620B8803854FF00003C4F2010320
:1011E000984205D04FF48063C4F20103984201D1C4
:1011F0008B7A03864FF001038382704703804B682C
:10120000C3620B880385EDE729B103889BB243F0E5
:10121000800303807047038823F080034FEA034371
:101220004FEA13430380704729B103889BB243F010
:10123000010303807047038823F001034FEA03434F
:101240004FEA13430380704770B4038C23F001030B
:101250004FEA03434FEA13430384038C8588ADB2FE
:10126000028B22F073024FEA02424FEA12420C88CC
:10127000224323F002034FEA03434FEA13434E880D
:101280008C893443A4B223434FF00004C4F2010418
:10129000A04205D04FF48064C4F20104A04211D1F1
:1012A0004FF6F7741C40CB891C434FF6FB73234069
:1012B0008C8823434FF6FF442C404E8A0D8A3543D9
:1012C000ADB22543858002838A684263038470BC83
:1012D000704700BF30B4038C23F480734FEA03439C
:1012E0004FEA13430384038C8488A4B2828B22F0D8
:1012F00073024FEA02424FEA12420D882A4323F456
:1013000000734FEA03434FEA13438D8943EA0523F1
:101310004D8843EA05239BB24FF00005C4F2010556
:10132000A84205D04FF48065C4F20105A84216D149
:101330004FF2FF751D40CB8945EA03254FF6FF3379
:101340002B408D8843EA05239BB24CF6FF75254060
:101350000C8A45EA04154C8A45EA0414A4B2848038
:1013600082838A68C263038430BC7047038B23F096
:1013700008034FEA03434FEA13430B4303837047C9
:10138000838B23F008034FEA03434FEA13430B43D5
:101390008383704722B183899BB21943818170474F
:1013A00083899BB223EA010181817047038A828984
:1013B00092B2194204D011420CBF002001207047A4
:1013C0004FF00000704700BF6FEA010189B201824F
:1013D000704700BF737464696F2E633A20696E634F
:1013E0007265617365204D41585F535452494E47B1
:0813F0005F53495A450A0D0044
:1013F80000000000010203040102030406070809B3
:10140800180000200000000000000000000000009C
:1014180001000000000000000000000000000000C3
:1014280000000000000000000000000000000000B4
:1014380000000000000000000000000000000000A4
:101448000000000000000000000000000000000094
:101458000000000000000000000000000000000084
:10183800007A030A0000000000000000010203040F
:04184800060708097E
:0400000508000000EF
:00000001FF
