:020000040800F2
:10000000540F0020990D000881280008950D000864
:1000100085280008892800088D28000800000000B5
:10002000000000000000000000000000912800080F
:100030009528000800000000992800089D28000865
:10004000950D0008950D0008950D0008950D000808
:10005000950D0008950D0008950D0008950D0008F8
:10006000950D0008950D0008950D0008950D0008E8
:10007000950D0008950D0008950D0008950D0008D8
:10008000950D0008950D0008950D0008950D0008C8
:10009000950D0008950D0008950D0008950D0008B8
:1000A000950D0008950D0008950D0008950D0008A8
:1000B000E5280008950D0008950D0008950D00082D
:1000C000950D0008950D0008950D0008950D000888
:1000D000950D0008950D0008950D0008950D000878
:1000E000950D0008950D0008950D0008950D000868
:1000F000950D0008950D0008950D0008950D000858
:10010000950D0008950D0008950D0008950D000847
:10011000950D0008950D0008950D0008950D000837
:10012000950D0008950D0008950D0008950D000827
:10013000950D0008950D0008950D0008950D000817
:10014000950D0008950D0008950D0008950D000807
:10015000950D0008950D0008950D0008950D0008F7
:10016000950D0008950D0008950D0008950D0008E7
:10017000950D0008950D0008950D0008950D0008D7
:10018000950D0008950D00082DE9F04F2DED108B11
:1001900087B005910028049040F3D7800022039295
:1001A000DFED75BA9FED6CDB9FED6DFB9FED6EEBA8
:1001B0009FED6FCBA2E007EE90AAB8EEE7BA1BEE78
:1001C000100A05F0F3FE53EC192B06F06DF8024609
:1001D0000B4651EC1A0B05F08BFD06F0FDF905F00E
:1001E000E5FE04460D4645EC104B04F059F859EC79
:1001F000108B45EC104B03F0FFFF57EC106B2046C3
:10020000294653EC1F2B05F073FD41EC180B41EC14
:10021000100B04F045F855EC104BB0EE480AF0EE28
:10022000680A03F0E9FFB0EE408AF0EE608ABDEEA6
:10023000CBBA4046494653EC1E2B05F00BFF53EC5E
:100240001C2B05F055FD06F0C7F907EE900AFDEEF0
:10025000E77A17EE908A3046394653EC1E2B05F0AC
:10026000F9FE53EC1C2B05F043FD06F0B5F907EE43
:10027000900AFDEEE77A17EE906A2046294653EC85
:100280001D2B05F0E7FE53EC1C2B05F031FD06F0AD
:10029000A3F907EE900AFDEEE77ACDED007A51EC76
:1002A000180B53EC1D2B05F0D5FE53EC1C2B05F061
:1002B0001FFD06F091F907EE900AFDEEE77ACDED0D
:1002C000017A1BEE100A414632461BEE103A02F04C
:1002D00077FE0AF1010ABAF1080F7FF46CAF02F061
:1002E000E1FD059A90B202F0D3FD002002F032FD4C
:1002F000039B01330393049A934226D0DDED037AE6
:10030000B8EEE78AC8EE2B7A17EE900A05F04EFE9B
:1003100041EC1A0BDFED197AC8EE277A17EE900A36
:1003200005F044FE41EC100B03F0BAFF51EC100B4A
:100330000022134B05F08EFE53EC1D2B05F0D8FC6C
:1003400041EC190B4FF0000A35E707B0BDEC108BFC
:10035000BDE8F08FAFF300800000000000002440F3
:100360001F85EB51B81E094000000000000014403A
:100370000000000000001040000048420000484318
:1003800000001C40AFF300802DE9F04F2DED0C9BD9
:1003900085B00391B0F1000940F395804FF000085B
:1003A000DFED53EA9FED4ABB9FED4B9B9FED4CABBE
:1003B0009FED4DCB4FF0000ADFF840B13DE007EE76
:1003C000106AF8EEC77AC7EE8E7A7DEEA77A17EE3E
:1003D000900A05F0EBFD41EC100B03F0B9FF51EC76
:1003E000100B22462B4605F035FE52465B4605F0C3
:1003F0007FFC06F0F1F807EE900A00963DEE677A72
:10040000BDEEC77A8DED017A38463146FDEEE77ACA
:1004100017EE902A0A2302F0D3FD0136082ECED122
:1004200002F040FD039B98B202F032FD002002F082
:1004300091FC08F10108C84545D007EE108AB8EED6
:10044000C7DACDEE2E7A17EE900A05F0AFFD41EC3B
:10045000100B03F025FF51EC100B53EC1B2B05F098
:1004600047FC53EC192B05F043FC06F0B5F80EEEF3
:10047000100ADFED207ACDEE277A17EE900A05F00C
:1004800095FD41EC100B03F00BFFDFED1BDACDEE19
:100490002DDA51EC100B53EC192B05F029FC53EC21
:1004A0001A2B05F0D7FD53EC1C2B05F021FC06F0B0
:1004B00093F805F07BFD04460D460026B1EE0CDAFC
:1004C0006FF002077BE705B0BDEC0C9BBDE8F08F39
:1004D0000000000000000040000000000000F03FAD
:1004E000000000000000184000000000000008406C
:1004F0000000C842000048430000204200001040B5
:100500002DE9F04F2DED0C8B85B000AF78600E46D5
:100510003A60002002F01EFC06EB4603DB000833C5
:10052000ADEB030DC7F80CD07B68002B40F32C819A
:100530000022BA60DFF88CA29FED97BB9FED98ABCD
:100540009FED999B9FED9A8B06F0A4F89A4B18406B
:1005500003D5013860F00300013007EE100AB8EE51
:10056000C7DA06F097F8944B184003D5013860F0CD
:100570000300013007EE900AF8EEE7DA06F08AF899
:100580008E4B184003D5013860F00100013007EEB2
:10059000100AF8EEC7CAF1EE047A7CEEA7CAF0EEB4
:1005A000007A3DEE27DA7DEEA7DAF5EEC0CAF1EE6D
:1005B00010FA23DD64250024FDEECD7A17EE90BA03
:1005C000BDEEED7A17EE109AA046584649462246EF
:1005D00002F0EAFA284602F05BFC02F063FC4046B7
:1005E00002F0B8FB01340A35ADB207EE104AF8EE5E
:1005F000C77AF4EEE7CAF1EE10FAE6DC002E40F31B
:10060000BC80FA6802F114044FF0000B4FF0C809E7
:100610009FED6BCA04ED05DA44ED04DA44ED03CA3C
:1006200006F038F8804606F035F8054606F032F850
:100630008AFB08324FEAE873C3EBA21309FB13836A
:1006400007EE103AB8EEC77A87EE0C7AF7EE007A2A
:1006500037EEC77A04ED027A8AFB0532EB17C3EB5B
:10066000A21309FB135307EE103AB8EEC77A87EED0
:100670000C7A37EEC77A04ED017A8AFB0032C31791
:10068000C3EBA21309FB130307EE103AB8EEC77AC7
:1006900087EE0C7A77EEC77A17EE902A44F8182B7B
:1006A0000BF1010BB345B5D167E0404605F06CFC9A
:1006B00053EC1B2B05F01CFB53EC1A2B05F0F4FD3F
:1006C00041EC100B03F044FE51EC100B53EC192BD2
:1006D00005F0C0FC53EC182B05F00AFB05F07CFF7D
:1006E0000CEE100A002E33DDFB6803F114044D46B6
:1006F00054ED026AC6EE8C6A54ED057A77EEA66A6E
:1007000044ED056A14ED017A87EE0C7A54ED047A13
:1007100037EE877A04ED047AD4ED007AC7EE8C7A4E
:1007200014ED036A77EE867A44ED037AFDEEE66A0D
:1007300016EE900ABDEEC77A17EE101AFDEEE77AB4
:1007400017EE902A02F030FA01351834B542CFD1B5
:1007500002F0A8FB584602F09BFB484602F0FAFA6A
:1007600008F10108B8F1190F9FD1BA680132BA60D7
:100770007B689A427FF4E8AE06E04FF00008C1467D
:100780003A681FFA82FB90E71437BD46BDEC0C8B2C
:10079000BDE8F08FAFF300809A9999999999B93F84
:1007A0000000000000003440000000000000244071
:1007B000000000000000F03F030000800100008006
:1007C0000000C8421F85EB5108B52DED028B30EEBD
:1007D000411A70EEE11A21EE011A61EEA11A31EE12
:1007E000218A18EE100A05F0E1FB41EC100B03F032
:1007F000EBFD51EC100B05F0EFFE00EE100ABDEC26
:10080000028B08BD000000002DE9F04F2DED049B88
:1008100083B000900191002002F09CFA009A002A17
:1008200076DDDFED419A4FF0000ADFF80CB1DFED25
:100830003FAA3BA7D7E9006700243D4D63E0B0EE37
:100840000C0AF0EE400AB0EE491A07EE908AF8EE74
:10085000E71AFFF7B9FF10EE100A05F0A7FB3246C2
:100860003B4605F021FD52465B4605F0F3FB05F0E3
:10087000B3FE07EE900A87EEAA7AF8EEE97AC7EEA1
:100880008A7A77EE277A17EE900A05F08FFB41EC13
:10089000100B03F005FD51EC100B22462B4605F022
:1008A000D9FB22462B4605F023FA05F095FE07EE0C
:1008B000900AFDEEE77A17EE902A4846414602F08C
:1008C00073F908F10108B8F1080FB8D109F101096D
:1008D000B9F1080F06D04FF0000807EE909AB8EE75
:1008E000E79AACE702F0DEFA019A90B202F0D0FA91
:1008F000002002F02FFA19EE903A013309EE903AF7
:10090000009A934204D04FF000099FED0AAAE2E753
:1009100003B0BDEC049BBDE8F08F00BFAFF30080D7
:10092000BFD4CF9B8ACC2340000000006666A63F60
:10093000000010400000484200002040AFF300805B
:100940002DE9F04F2DED0E8B85B002900391002024
:1009500002F000FA029A002A40F3B1804FF0000A38
:1009600000245F4D9FED58BB9FED59AB4FF0000841
:10097000DFF87891CDF804A049EC198BDDED017A10
:10098000F8EEE7CADFED577ACCEEA77A17EE900AB9
:1009900005F00CFB41EC180B41EC100B03F080FC54
:1009A00051EC100B22462B4605F054FB53EC1B2B4D
:1009B00005F09EF905F010FE0DEE100AB0EE480AA3
:1009C000F0EE680A03F018FC51EC100B22462B469F
:1009D00005F040FB53EC1B2B05F08AF905F0FCFDFC
:1009E0000EEE100A0027DFED40DA0FF2EC0BDBE928
:1009F00000AB4EE0B0EE4D0AF0EE4E0AB0EE4C1AEF
:100A000007EE906AF8EEE71AFFF7DEFE10EE100A26
:100A100005F0CCFA53EC1A2B05F046FC53EC192BDD
:100A200005F018FB05F0D8FDB6EE007A07EE900A47
:100A300027EE877ACCEEAD7A77EE277A17EE900A1A
:100A400005F0B4FA41EC100B03F02AFC51EC100B4A
:100A500052465B4605F0FEFA22462B4605F048F961
:100A600005F0BAFD07EE900AFDEEE77A17EE908AE0
:100A70003846314617EE902A02F096F8384631464D
:100A8000424602F091F80136082EB3D10137082F03
:100A900005D0002607EE907AB8EEE7CAAAE702F082
:100AA00001FA039A90B202F0F3F9002002F052F931
:100AB000019B01330193029A93427FF45FAF05B02B
:100AC000BDEC0E8BBDE8F08F0000000000000C4074
:100AD000BFD4CF9B8ACC2340CDCCCCCCCCCC0C404B
:100AE000000010400000FA4300004842000020408F
:100AF00008B52DED028B70EE611A30EEC22A71EE50
:100B0000622A61EEA11A22EE022A31EE828A62EE98
:100B1000A22A38EE228A18EE100A05F047FA41ECB4
:100B2000100B03F051FC51EC100B05F055FD00EEDD
:100B3000100ABDEC028B08BD2DE9F84F2DED108B8E
:100B400082468B46002002F005F9BAF1000F40F30F
:100B5000B7804FF00009DFED62DA9FED5BAB9FEDF0
:100B60005C8BB3EE0EDADFED5FCA9FED5BBB07EE89
:100B7000909AB8EEE7EACEEE2D7A17EE900A05F0DD
:100B800015FA41EC190B41EC100B03F089FB51EC09
:100B9000100B53EC1A2B05F05DFA53EC182B05F0F3
:100BA000A7F805F019FD0CEE100AB0EE490AF0EEB8
:100BB000690A03F021FB51EC100B53EC1A2B05F0E2
:100BC00049FA53EC182B05F093F805F005FD0EEEED
:100BD000900ACEEE0D7A17EE900A05F0E7F941EC97
:100BE000100B03F009FB53EC102B10EE100A194602
:100BF00005F07EF853EC182B05F07AF805F0ECFCC4
:100C00000FEE100A8EEE2CEA1EEE100A05F0CEF959
:100C100041EC100B03F044FB51EC100B53EC1B2B7D
:100C200005F066F805F0D8FC09EE100A0026B0467B
:100C30003746F7EE00FA2FE0B0EE4E0AF0EE690A02
:100C400007EE904AB8EEE71AF0EE4C1AB0EE6E2AB4
:100C5000F0EE4F2AFFF74CFFB4EEC09AF1EE10FA17
:100C60000BD579EE2F7AB4EEE70AF1EE10FA04D53F
:100C700030462946224601F097FF0134082CDBD18B
:100C80000135082D05D03C4607EE905AF8EEE79A5C
:100C9000D2E70136082E05D0454607EE906AB8EE39
:100CA000E7EAF0E702F0FEF81FFA8BF002F0F0F846
:100CB000002002F04FF809F10109D1457FF457AF48
:100CC000BDEC108BBDE8F88F000000000000044070
:100CD0000000000000000C40000000000000004088
:100CE000000048420000164310B51F4802F01CFBEC
:100CF0001E4B1A88C04380EA020189B21C4A108840
:100D00000840C04380B2108054880C404440548056
:100D1000014021401A8892B24A401A801888154A28
:100D20001488A4B20140214311801B8803F480532E
:100D30009BB21BB931220E4B9A8010BD0C4B9B8885
:100D4000013B9BB213B10A4A938010BD0222084BAB
:100D50009A80064B1A88084B198889B202F480528F
:100D60000A431A8010BD00BF000002409406002014
:100D700078060020920600209006002072B6044BF0
:100D80001A8810401A8892B242401A8062B67047A0
:100D900092060020FEE700BF10B5134B134A9A429B
:100DA0000DD2131D124CE41A24F003040434002362
:100DB000104610495A581A500433A342FAD10E482B
:100DC0000E494FF000028842B8BF40F8042BFFF6EE
:100DD000FAAFDFF82C00016841F47001016002F005
:100DE0000BFC00F067F910BD780600200000002021
:100DF0007B0600204869000878060020580700207C
:100E000088ED00E02DE9F8430120014601F00EFDD8
:100E10000420012101F00AFD0820012101F006FD56
:100E20001E4C4FF0FF09C4F80090012626710025E2
:100E3000A57103276771E571DFF86C804046214694
:100E400002F024FAC4F800902671A5716771E5716B
:100E50001348214602F01AFA4FF47063236026719A
:100E6000A5716771E5714046214602F00FFA18231B
:100E700023602671A5716771E5710A48214602F069
:100E800005FA4FF48053236025716771E67140467F
:100E9000214602F0FBF9BDE8F88300BF3C070020C3
:100EA00000080240000C02400000024030B583B050
:100EB0001C238DF8043000258DF8055001248DF891
:100EC00006408DF8074001A802F0B0FE20462146FA
:100ED00001F0BAFC0C4940F2E7334B6014230B805D
:100EE0000D814D804FF0804002F0D8FE4FF08040E1
:100EF0002146224602F0BEFF4FF08040214602F01C
:100F00001FFF03B030BD00BF9806002038B5022097
:100F1000012101F099FC0420012101F087FC0B491B
:100F20004FF480730B6002240C7103234B71002378
:100F30008B710123CB71064D284602F0A7F9284694
:100F40000821224602F0FEF938BD00BF3C07002010
:100F500000080240F8B5194B1A68194BA3FB02139D
:100F6000DB0C013B174948600B8000260E814E8048
:100F7000154D284602F092FE144C60232380012771
:100F80006780A660A6812846214602F0E7FE284633
:100F9000082102F05FFF6780A6602846214602F024
:100FA00017FF2846082102F05DFF2846394602F067
:100FB000B9FE2846394602F0C3FEF8BD600600209F
:100FC00083DE1B4398060020000400402807002011
:100FD00070B59CB03248012101F028FC4FF48070BC
:100FE000012101F03FFC002403942E4B04932E4B6F
:100FF0000593069401250795089409944FF400631E
:101000000A934FF400530B934FF480730C934FF4F7
:1010100000330D930E940F9510941194234E304687
:1010200003A902F0AFFB3046294602F0D7FB019539
:1010300003238DF808308DF80B401D4801A902F0FC
:1010400025F912944FF4403313931494159412A875
:1010500001F0FEFC16948DF85C408DF85D501894FC
:1010600019941A948DF86C50A6F5A236103E3046AD
:1010700016A901F0C5FC304608212A46234601F096
:1010800009FD3046294601F061FD3046294601F050
:1010900051FD3046294601F0F1FC1CB070BD00BF87
:1010A000020040004C2001408006002010640240F5
:1010B0000004024070B502F09FFA02F01DFB4048A8
:1010C00001F058FB3F4B1A6852083F4BA3FB02123A
:1010D000120A013A3D4B5A60F0213D4A82F8231032
:1010E00000229A6007221A60FFF7E0FEFFF70EFF6A
:1010F0006420FFF72FFFFFF785FEFFF769FF3548F4
:1011000001F012FD02F032F902F058FF324C334B7D
:101110001888A11C02F020FF6288314BDA63208816
:1011200080B205F0AFFA4FF47A7001F0B1FE4FF4DF
:101130008050FFF723FE48B3FF2001F0F7FD294E52
:10114000274D0AE06388642B8CBF0223023363803F
:101150006388EB63C82001F09BFE30464FF480515A
:1011600002F0DCF80028EDD04FF4FA7001F090FEA8
:101170001D4C08252583194B1888174B598802F0F8
:10118000DBFF4FF4FA7001F083FE6583002001F06D
:10119000CDFD1824154D05F07DFA80FB0523C218FE
:1011A000C317C3EB621303EB8303C3EBC303C01A80
:1011B00002F020FB0134232CA8BF1824EBE700BF6A
:1011C0004407002060060020B107CEC410E000E014
:1011D00000ED00E00020014080060020000000201B
:1011E0000004004000000240000C0240EBA00EEAA8
:1011F0002DE9F04782B000F1FF3A80262AE06946E7
:1012000001F0DEFB02274FF007090FE046FA04F277
:1012100015F8023C1A4204D040463946224601F0F5
:10122000AFFC013CF2D10137072F05D04C4600AD91
:101230003D444FF00008E9E707244FF050087827B5
:101240000125404601F024FE3846294601F042FEC1
:10125000013CF6D11AF8010F0028D0D108245027FC
:1012600078260125384601F013FE3046294601F064
:1012700031FE013CF6D102B0BDE8F0872DE9F8431C
:101280008146884600242746C6B28DB2384601F012
:101290004DFD3046E1B201F035FD284601F0F8FD84
:1012A0000134082CF2D15FFA89F71FFA88F6072477
:1012B0000025284601F03AFD3846E1B201F022FD52
:1012C000304601F0E5FD013CB4F1FF3FF1D1BDE84E
:1012D000F88300BF2DE9F843002001F027FD4FF00F
:1012E0000208284F284E45E0484601F01FFD87FBC5
:1012F0000420E517C5EBA00080B201F0C9FDFF2076
:1013000001F014FD082001F0C3FD86FB0423C5EBAA
:10131000A3054FF47A7393FBF5F5641B0F3C002C87
:10132000E2DC184601F0B4FD40F2EE244FF0000973
:10133000484601F0FBFC87FB0430E517C5EBA00035
:10134000C0F13A0080B201F0A3FDFF2001F0EEFCF5
:10135000082001F09DFD86FB0423C5EBA3054FF497
:101360007A7393FBF5F5641B0F3C002CE0DCB8F1BD
:10137000010804D040F2EE244FF00009B4E7BDE8C4
:10138000F88300BF4FECC44E676666662DE9F04FE8
:1013900085B0884692469B46002803903EDD002299
:1013A0000292164621F0020934E0072CD4BFC4F1A2
:1013B0000705A4F10805304601F0B8FC384601F0F5
:1013C00067FD72B6009501953046314632462B4690
:1013D00001F0DEFCBAF1000F01DD01F02BFFB9F1E5
:1013E000010F01D101F0B8FEA8F10203012B01D8D1
:1013F00001F0EEFE62B6584601F04AFD304601F0BB
:1014000095FC0134102CD0D1029B01330293039A36
:10141000934203D0344607250127CCE705B0BDE849
:10142000F08F00BFF0B583B006460F46002001F0F4
:101430007DFC0024B6B22546002FCCBFC4F10303C7
:1014400023461A1DC3F1030300930193104611466E
:1014500001F09EFC304601F01BFD284601F066FCC1
:101460000134042CE8D103B0F0BD00BF2DE9F843EE
:1014700006460D46914600241FFA83F8B9F1070F7E
:1014800008D1C4F1070730462946C4F1080201F02B
:101490009FFB05E030462946621E01F099FB274676
:1014A000304629463A4601F06BFB404601F0F0FC1D
:1014B0000134082CE2D1BDE8F88300BF2DE9F04FDC
:1014C00083B0814600911646002001F02FFC0027D2
:1014D000B8462D4D14E005F0DDF810EA050203D5FD
:1014E000013A62F00102013238462146C2EBC202E3
:1014F00001F046FB0134082CEDD10137082F01D053
:101500004446E8E7B9F1000F3BDD0025A846AA46AE
:101510001E4CC346B6B2019605F0BCF8074605F06E
:10152000B9F8204003D5013860F0070001300146CA
:10153000C6B2464521D017EA040003D5013860F051
:1015400007000130C7B2574517D03846C9B25A46CE
:1015500001F066FB30B1384631465A46009BFFF732
:1015600085FF05E0384631460722009BFFF77EFFE6
:10157000019801F08DFCB046BA460135EDB24D45FB
:10158000CADB03B0BDE8F08F0100008007000080D7
:101590002DE9F04F9FB0019005910293002001F0DA
:1015A000C5FB05F077F8B54C204003D5013860F055
:1015B00007000130044605F06DF8B04B184003D524
:1015C000013860F007000130834605F063F8AB4D49
:1015D000284003D5013860F007000130054606AA0F
:1015E00000920DF1780A13465A461A605C609D60BD
:1015F0000C335345F9D1019B002B00F01C820126CE
:1016000037469146AB46354605F044F89C4A82FB86
:101610000023A3EBE07303EB4303984231D105F0C1
:1016200039F8974A82FB0023A3EBE07303EB4303F3
:10163000C31A0BD105F02EF8914B83FB0037A7EBB3
:10164000E07707EB4707C71B013F1AE0012B0BD1DF
:1016500005F020F88A4A82FB0023A3EBE07303EB3A
:101660004303C01A451E0CE0022B0AD105F012F804
:10167000834A82FB0023A3EBE07303EB4303C01A0E
:10168000461EB7F1FF3F13D1B9F1000F13D105F09A
:1016900001F87B4B83FB0037A7EBE07707EB4707AD
:1016A000C71B012F14BF002701270122039204E06A
:1016B0000023039301E000220392B5F1FF3F11D113
:1016C0009CB904F0E7FF6E4B83FB0035A5EBE0759A
:1016D00005EB4505451B012D14BF00250125012201
:1016E000049204E00023049301E000220492B6F186
:1016F000FF3F13D1BBF1000F13D104F0CBFF604BC0
:1017000083FB0036A6EBE07606EB4606861B012E31
:1017100014BF002601264FF0010804E04FF0000836
:1017200001E04FF00008012F13D1B9F1070F10D1DC
:1017300004F0B0FF524A82FB0023A3EBE07303EBFB
:101740004303C01A012814BF00276FF000070123CC
:101750000393012D12D1072C10D104F09BFF484AAE
:1017600082FB0023A3EBE07303EB4303C01A0128C1
:1017700014BF00256FF0000501230493012E13D13F
:10178000BBF1070F10D104F085FF3D4A82FB002317
:10179000A3EBE07303EB4303C01A012814BF002638
:1017A0006FF000064FF00108039B33B385B9072C97
:1017B0000AD064B104F06EFF00F00100002814BFED
:1017C00001254FF0FF3503E04FF0FF3500E0012524
:1017D0009EB9BBF1070F0CD0BBF1000F0CD004F089
:1017E00059FF00F00100002814BF01264FF0FF361A
:1017F00003E04FF0FF3600E00126049A4AB39FB998
:10180000B9F1070F0CD0B9F1000F0CD004F042FF72
:1018100000F00100002814BF01274FF0FF3703E05C
:101820004FF0FF3700E001279EB9BBF1030F0CD04A
:10183000BBF1000F0CD004F02DFF00F001000028D8
:1018400014BF01264FF0FF3603E04FF0FF3600E0F3
:101850000126B8F1000F28D0ADB9072C0AD08CB101
:1018600004F018FF00F00100002814BF01254FF01C
:10187000FF3508E04FF0FF3505E000BF07000080AE
:1018800056555555012587B9B9F1070F00F0D0809D
:10189000B9F1000F0DD004F0FDFE00F001000028AA
:1018A00014BF01274FF0FF3715E0B9F1000F12D137
:1018B00000E0012734B9BBF1000F1FD0BBF1070FC7
:1018C00030D11BE0072C2DD1BBF1000F16D0BBF19E
:1018D000070F27D112E0B9F1070F23D134B9BBF1BB
:1018E000000F0BD0BBF1070F24D107E0072C25D147
:1018F000BBF1000F02D0BBF1070F1FD104F0CAFEED
:101900004E4A82FB0023A3EBE07303EB4303C31AAD
:1019100005D0012B05D0022B08BF002602E00027CE
:1019200000E00025B9F1000F03D1B7F1FF3F08BF78
:1019300001271CB9B5F1FF3F08BF0125BBF1000F1E
:1019400003D1B6F1FF3F08BF0126B9F1070F03D15C
:10195000012F08BF4FF0FF37072C03D1012D08BF1F
:101960004FF0FF35BBF1070F03D1012E08BF4FF039
:10197000FF36B9442C44B344029B012B0ED1484698
:1019800021465A4601F0FCF8059A90B201F080FA1F
:10199000484621465A4601F01BF941E0029B022BC2
:1019A00009D1484621465A4601F058F9059A90B2A5
:1019B00001F06EFA34E0029B032B31D106AAADF19F
:1019C000480113469A6C5A65DA6C9A651A6DDA65A5
:1019D0000C3B8B42F6D1CDF818900794CDF820B08F
:1019E0000DF11808D8F80000D8F80410D8F808202D
:1019F00001F0C6F808F10C08C245F3D1059B98B276
:101A000001F046FA0DF11808D8F80000D8F80410D3
:101A1000D8F8082001F0DCF808F10C08D045F3D123
:101A2000019A531E9BB20193002B7FF4EDAD02E0AF
:101A30004FF0FF374FE71FB0BDE8F08F56555555B3
:101A40002DE9F04780460D4601290CBF0020FF20FC
:101A500001F06CF939E004F01DFE204003D5013897
:101A600060F007000130814604F014FE204003D5E9
:101A7000013860F007000130064604F00BFE10EA62
:101A8000040203D5013A62F007020132924635B9E9
:101A90004846314601F0C4F8012811D106E0012D75
:101AA0000ED14846314601F0BBF848B948463146A8
:101AB00052462B4601F0C8F8404601F0E9F90137DB
:101AC000B7F5FF7FC7DDBDE8F0870027014C1FFA9F
:101AD00088F8C0E7070000802DE9F84FB0F1000A50
:101AE00037DD4FF00008DFF874901B4C04F0D2FD96
:101AF00010EA090003D5013860F003000130064602
:101B000000281ADD0025072704F0C4FD834604F0F1
:101B1000C1FD01461BEA040003D5013860F007004F
:101B20000130214003D5013961F0070101313A4606
:101B300001F026F80135B542E6D1642001F0A8F99C
:101B40007A204FF0FF3101F0C5F908F10108D045C6
:101B5000CCD1BDE8F88F00BF0700008003000080F3
:101B60002DE9F84305460E461746002001F0DEF841
:101B70004FF00008C14624E01FB1335DC3F10702F6
:101B800000E0325D7A2D04D14046214600F0F8FF96
:101B90000EE0792D05D140461146224600F0F0FFB7
:101BA00006E0782D04D110462146424600F0E8FFB9
:101BB0000134082CE0D108F101080836B8F1080F0B
:101BC00001D04C46D8E7BDE8F88300BFF8B507461A
:101BD0000246002312F8014BCE5CA64284BF0134BA
:101BE00002F8014C12F8014CCD5CA5423CBF04F157
:101BF000FF3402F8014C0133402BEBD17A203946F7
:101C00000022FFF7ADFFF8BD2DE9F04FA1B08146EE
:101C10008846002404272E4D264610ABE75404F0D6
:101C200039FD284003D5013860F0070001300DF878
:101C300006000134402CEFD108247A2510A869460B
:101C40002A46FFF7C3FF1FFA88F7384601F020F94C
:101C5000013CF3D1B9F1000F37DD4FEA88081FFAD4
:101C600088FA4FF000081B4E194D2AE010A869466B
:101C70005A46FFF7ABFF384601F00AF9013CF5D1AF
:101C8000504601F005F9202404F004FD834604F0D9
:101C900001FD1BEA060203D5013A62F03F02013260
:101CA00020AB1A4410EA050303D5013B63F0070398
:101CB000013302F8803C013CE6D108F10108C84537
:101CC00003D008244FF07A0BD0E721B0BDE8F08FA5
:101CD000070000803F0000802DE9F04FA1B00746CB
:101CE0000D46924698460024A346324EA14610ABBC
:101CF00004F803B004F0CEFC304003D5013860F0A6
:101D0000070001300DF809000134402CEED1082401
:101D10000026ADB216E010ABCB5C1DF801209A4254
:101D200002D9013310AA535401314029F3D1384666
:101D300010A94246FFF714FFA946284601F0A8F86B
:101D4000013C01D03146E6E70DF13F010DF1FF33D3
:101D5000072203F8012F8B42FBD11FFA8AF001F012
:101D600097F8082620AD0DF1FF3A1CE011F8013B71
:101D700012F8014FA3423CBF013301F8013C11F8B6
:101D8000013C9C423CBF03F1FF3301F8013CA942F6
:101D9000ECD1384610A94246FFF7E2FE484601F072
:101DA00077F8013E02D010A95246DFE721B0BDE826
:101DB000F08F00BF070000802DE9F04FA1B08046F2
:101DC0000C4691461F460DF1FF330DF13F010022F5
:101DD00003F8012F8B42FBD14FF0000A0126314D51
:101DE000B346012F13D155E004F054FC284003D52D
:101DF000013860F03F00013020AB184410F8803CFF
:101E0000002BF1D10AF1010A00F880BC0DE0022F8D
:101E10000BD1BAF13F0F08DC20AB534413F8802CF0
:101E2000013203F8802C0AF1010A6B4610A84FF02A
:101E3000000E13F8012B511EC9B205299CBF0132B7
:101E400003F8012C13F8012C072A08BF0EF1010E2C
:101E50008342EED1BEF1400F08BF0026002324B913
:101E60001DF8031010AA995405E01DF80310C1F1E4
:101E7000070110AA99540133402BF0D11FFA89F0C1
:101E800001F006F8404610A90022FFF769FE002E77
:101E9000A7D103E0BAF13F0FC7DCA5E721B0BDE849
:101EA000F08F00BF3F0000802DE9F0410746002081
:101EB00000F03CFF0026B046154D0AE0E218A95498
:101EC0000133082BFAD1B8B200F0E2FF0136082E38
:101ED00003D04346F400FF21F0E7BFB207EB470011
:101EE00080B200F0D5FF00263446094D0AE0CA183A
:101EF000AC540133082BFAD1384600F0C9FF013643
:101F0000082E02D02346F100F1E7BDE8F08100BFC2
:101F1000E40600202DE9F04F83B088469346002860
:101F2000019037DD4FF00009CA461C4C2DE004F04B
:101F3000B1FB074604F0AEFB064604F0ABFB2740BE
:101F400003D5013F67F00707013716EA040103D5FF
:101F5000013961F00701013110EA040203D5013AA9
:101F600062F007020132384600F00AFE0135A8454A
:101F7000DDDA1FFA8BF000F08BFF504600F0D6FE42
:101F800009F10109019B994504D0B8F1000FF0DB7C
:101F90005546CCE703B0BDE8F08F00BF07000080D6
:101FA00070B5012405260F25304621462A46FFF745
:101FB000B1FF0134142CF7D105260F2530462146F8
:101FC0002A46FFF7A7FF013CF8D170BD70B5051E8A
:101FD0000EDB2C460023C9B20848072C04DC072B73
:101FE000DCBF03EBC40681550133013C9D42F4DAAA
:101FF00090B200F04DFF284670BD00BFE4060020FF
:1020000038B50C46154638B1102029462246FFF750
:10201000DDFF0138F9D538BD002029462246FFF7FB
:10202000D5FF01300F28F8DD38BD00BF2DE9F04F96
:102030008DB007908B4609920A93B2F1FF3F0CBF17
:102040004FF0070A4FF0000AC0F10900089004F0B1
:1020500021FB089990FBF1F303FB1103059304F0B6
:1020600019FB089A90FBF2F303FB120300930A9BFF
:10207000002B77DD002006905FFA8BF10B91079A19
:10208000049204F007FB044604F004FB374981FB8B
:102090000013A3EBE07303EB4303C31A013B334884
:1020A00080FB0402A2EBE47202EB4202A21A013AA4
:1020B00005990A44002A04DD08989042C8BF1146D9
:1020C000059100990B44002B04DD089A9A42C8BF81
:1020D000194600910B98099900F0FCFE079B002B14
:1020E00036DD05980190034402930646DDF8009022
:1020F000C0EB0901039120E0BBF17A0F05D1304616
:102100002146524600F03CFD10E0BBF1790F05D1AD
:1021100030465146224600F033FD07E0BBF1780F10
:1021200004D1504641463A1900F02AFD0134AC4230
:10213000E2D10136029A96420AD0009D049B1D44CA
:102140004C46DDF80C80B0440198C9EB0007D3E79A
:10215000169988B200F09CFE069A013206920A9BFC
:102160009A428ED10DB0BDE8F08F00BF565555553F
:102170002DE9F04F91B00790059193469C4D08AC26
:1021800028686968AA68EB680FC428696969AA6940
:10219000EB690FC40799002940F35B810022069286
:1021A00008AB00934FE1B8F1000F05D1019901315F
:1021B0000191042908D103E0019A0132019203E060
:1021C000002301934FF001080199C1EB417A4FEAD6
:1021D000CA0A002708AA02EBC1091BE0584631468B
:1021E000E2B200F0FFFB60B137B9204619F80410E5
:1021F000424600F0C5FC04E02046E97F424600F07C
:10220000BFFC0134013D082CE8D14346B8465F1CB1
:10221000082F09D008AD55440024C7F10706F6B2CF
:102220003B4647469846D9E7059B9CB2204600F0BE
:102230002FFE002000F07AFD029901390291B2D1FF
:10224000039407220292002301939846B8F1000FED
:1022500005D1019901310191042908D103E0019AC6
:102260000132019203E0002301934FF0010801992C
:102270004FEAC10A0027009AA2EBC10921E0621EC1
:1022800058463146D2B200F0ADFB88B14FB908AB29
:102290005344234413F8010C2946424600F070FCD5
:1022A00006E009EB0503187E2946424600F068FC6B
:1022B000013D0134092CE2D14346B8465F1C082F8A
:1022C00007D001240725EE1BF6B23B464746984649
:1022D000D5E7039800F0DCFD002000F027FD029B0D
:1022E000013B0293B2D1072104910022029292464F
:1022F000BAF1000F05D1029B01330293042B08D1E0
:1023000003E002990131029103E0002202924FF0B2
:10231000010A0299C1EB4173DB0001934FF0000801
:1023200008AA02EBC10922E0661EC4F10802584661
:102330003946D2B200F056FB80B1BAF1000F08D195
:1023400009EB0403304613F8011C424600F018FC68
:1023500004E03046E97F424600F012FC0134013DC2
:10236000092CE1D108F10108B8F1080F07D008AD38
:10237000019B1D440124C8F10707FFB2D4E703986D
:1023800000F086FD002000F0D1FC04990139049191
:10239000AED107220292002301939846B8F1000FB4
:1023A00005D1019901310191042908D103E0019A75
:1023B0000132019203E0002301934FF001080199DB
:1023C0004FEAC10A0027009AA2EBC10923E0584650
:1023D0003146E2B200F006FB98B15FB908AB534456
:1023E0002B4413F8010C2146424600F0C9FB08E0DB
:1023F000D466000809EB0403187E2146424600F02B
:10240000BFFB0135013CB4F1FF3FE0D14346B84684
:102410005F1C082F07D007240125E61BF6B23B46B8
:1024200047469846D3E7039800F032FD002000F0BD
:102430007DFC029B013B0293B0D1069901310691CC
:10244000079A914205D00723029300210191884603
:10245000A9E611B0BDE8F08F2DE9F04107464E1E08
:10246000002E28DD45184FF0000816E015F8021C74
:10247000080901F00F01224600F0D2FB034615F8CF
:10248000011C080901F00F01224600F0DDFB0134B8
:10249000082CEBD1013D013E0DD04446E6E73978EA
:1024A000080901F00F01224600F092FB0134082CCC
:1024B000F5D1BDE8F0810024F1E700BF2DE9F0433C
:1024C00089B006460F46002001A91C2200F064FADC
:1024D000002E21DD00250424DFF844904FF01C0875
:1024E00004F0D8F889FB0023A3EBE07303EB43036C
:1024F000C01A0138044484F3030401A84146FFF7DD
:10250000ABFF00200721224600F03AFBB8B200F0F2
:10251000BFFC0135B542E3D109B0BDE8F08300BF8F
:10252000565555552DE9F04385B006460F46012016
:102530006946102200F030FA002E19DD00240E4DFD
:102540004FF00409A04614EA050203D5013A62F0EF
:10255000070201324846414600F012FBB8B200F0D3
:1025600097FC68461C21FFF777FF0134B442EAD19B
:1025700005B0BDE8F08300BF070000802DE9F04FF3
:102580008BB081468B46002003A91C2200F004FA80
:102590009BF80000002841D0002501A900F010FAA6
:1025A0000DF103080DF1080A072718F8016F2C46F2
:1025B000C4F1070346FA03F313F0010F05D02846D0
:1025C0003946224600F0DCFA04E028463946224625
:1025D00000F0FEFA0134082CEAD103A81C21FFF711
:1025E0003BFF1FFA89F000F053FCD045DDD103A872
:1025F0001C21FFF731FF1FFA89F000F049FC1BF89E
:10260000010F0028C9D109E003A82946FFF724FFDC
:10261000484600F03DFC013CF6D104E01C24254670
:102620001FFA89F9F0E70BB0BDE8F08F2DE9F04F04
:102630008BB0009088460192002003A91C2200F074
:10264000ABF9019B002B4CDD4FF0000B07275D46DB
:1026500037E0C4F107014046C9B2324600F0C2F982
:1026600028B128463946224600F08AFA04E0284676
:102670003946224600F0ACFA0134082CE9D1544620
:10268000504600F005FC03A81C21FFF7E5FE09F108
:102690000109B9F1080F03D02C465FFA89F6D8E793
:1026A00014264FF01C09204600F0F2FB03A849460F
:1026B000FFF7D2FE013EF6D10BF1010B019B9B45CA
:1026C0000FD04FF00009009B1FFA83FAE4E7304671
:1026D00000F0DEFB03A82946FFF7BEFE013CF6D161
:1026E00004E00A24009B9EB21C25F0E70BB0BDE875
:1026F000F08F00BF2DE9F047B1F1000835DD00266D
:102700001B4C1FFA80F903F0C5FF204003D50138A8
:1027100060F007000130824603F0BCFF204003D583
:10272000013860F007000130074603F0B3FF10EAFC
:10273000040503D5013D65F00705013550463946CE
:102740002A4600F06DFA28B1504639462A4600F074
:102750003FFA04E0504639462A4600F011FA48464E
:1027600000F096FB01364645CDD1BDE8F08700BFAD
:102770000700008010B4294B9B6803F00C03042B66
:1027800005D0082B06D04BBB254B036028E0254B1A
:10279000036025E0214B59685A6802F03F0211F4AA
:1027A000800F08D05968C1F388111E4BB3FBF2F3B8
:1027B00003FB01F308E0194B5968C1F38811184B6A
:1027C000B3FBF2F303FB01F3144A5268C2F3014274
:1027D00001325200B3FBF2F3036001E0104B0360DF
:1027E0000E498B68C3F303130F4AD35CDBB2046852
:1027F00024FA03F343608C68C4F38224145DE4B2CA
:1028000023FA04F484608968C1F34231525CD2B285
:10281000D340C3605DF8044B704700BF00380240EE
:102820000024F40000127A000C00002021B1054BB6
:102830001A6B104318637047024B1A6B22EA0000B0
:10284000186370470038024021B1054B1A6C1043E1
:1028500018647047024B1A6C22EA00001864704733
:102860000038024021B1054B5A6C10435864704740
:10287000024B5A6C22EA000058647047003802404C
:10288000704700BFFEE700BFFEE700BFFEE700BFE6
:10289000704700BF704700BF704700BF08B50E4AC1
:1028A00013780133DBB213700C4A11780131C9B2CD
:1028B00011700B4A128892B22AB1094A118889B262
:1028C000013989B211803C2B04D10022024B1A70CD
:1028D000FEF70AFA08BD00BF8C060020540700204E
:1028E00056070020F8B54FF08040012101F0CEFAE4
:1028F000002847D04FF08040012101F0D3FA224B4D
:102900001A78013A1A702148002100F019FD204878
:102910004FF4006100F010FD00241D4D1A4F1D4EB4
:10292000284600F005FD20F4E06040EA0421284636
:1029300089B200F005FD284600F0FAFC3B7804EB74
:10294000C303F35C00F47F412846194300F0F8FC10
:102950000134082CE4D10E4C20464FF4E06100F025
:10296000EDFC20464FF4006100F0E8FC064C2378B3
:1029700001219940054889B200F0E2FC23780BB9A7
:1029800008222270F8BD00BF1C0000200008024091
:1029900000000240E406002010B401280CBF1C20F7
:1029A0000020002A07DD0023044C0444E05CC854E6
:1029B00001339342FAD15DF8044B7047F466000886
:1029C00010B42038C4B204EB8404002304481A195C
:1029D000825CCA540133052BF9D15DF8044B704772
:1029E00020000020054B03EBC000014491F8E001FA
:1029F000C0B2104100F00100704700BF200000206D
:102A000010B4436823F0407323F480730A681343BF
:102A10000A7943EA022343608468CA680B691A434F
:102A20008B681A43094B234013434A7943EA420314
:102A30008360C26A22F470020B7D013BDBB242EA82
:102A40000353C3625DF8044B704700BFFDF7FFC03E
:102A500010B4084A5168084B0B40446801680C43A5
:102A600081682143C06801430B4353605DF8044B08
:102A7000704700BF00230140E030FCFF21B18368B4
:102A800043F0010383607047836823F00103836090
:102A9000704700BF70B409290ED9C668A1F10A04B5
:102AA00004EB44040725A54026EA050503FA04F4CF
:102AB00045EA0403C3600BE0066901EB4104072506
:102AC000A54026EA050503FA04F445EA0403036178
:102AD000062A0CD8446B013A02EB82021F23934072
:102AE00024EA030301FA02F21A4342631AE00C2AB1
:102AF0000CD8046B073A02EB82021F23934024EAAE
:102B0000030301FA02F21A4302630BE0C46A0D3AAE
:102B100002EB82021F23934024EA030301FA02F22C
:102B20001A43C26270BC7047836843F0804383607D
:102B3000704700BF21B1836843F48073836070479E
:102B4000836823F480738360704700BF21B183687A
:102B500043F4007383607047836823F400738360D9
:102B6000704700BF072806D8072906D8072A8CBF58
:102B7000002001207047002070470020704700BFF0
:102B800070B504460D461646FFF7ECFF48B1054BFD
:102B900005EBC602995C012000FA04F40C43E4B290
:102BA0009C5470BDE406002070B504460D461646E0
:102BB000FFF7D8FF48B1054B05EBC602995C012031
:102BC00000FA04F40C43E4B29C5470BDA406002047
:102BD00070B504460D461646FFF7C4FF48B1054BD5
:102BE00005EBC602995C012000FA04F421EA040412
:102BF0009C5470BDE406002070B504460D46164690
:102C0000FFF7B0FF48B1054B05EBC602995C012008
:102C100000FA04F421EA04049C5470BDA4060020C8
:102C200070B504460D461646FFF79CFF034638B1C3
:102C300005EBC605034B5B5DDBB2234103F00103EB
:102C4000184670BDE406002008B5012B02D1FFF73D
:102C500097FF08BDFFF7BCFF08BD00BF70B5044675
:102C60000D461646FFF77EFF48B1054B05EBC60241
:102C7000995C012000FA04F44C40E4B29C5470BD0D
:102C8000E406002010B4072808D80023054CC00033
:102C9000FF21C218A1540133082BFAD15DF8044B6F
:102CA000704700BFE4060020F0B4072814D80123C1
:102CB00003FA00F0C5B200263746084909E0E218D9
:102CC000885C284388540133082BF8D10136082E3C
:102CD00002D03B46F400F2E7F0BC7047E406002067
:102CE00010B4072808D80023054CFF2100EBC302CD
:102CF000A1540133082BF9D15DF8044B704700BF94
:102D0000E406002008B5792807D07A2809D0782869
:102D10000AD10846FFF7C8FF08BD0846FFF7E0FFE5
:102D200008BD0846FFF7AEFF08BD00BF70B4002520
:102D30002E46074C07E0CA18A0540133082BFAD1DD
:102D40000135082D02D03346E900F4E770BC704726
:102D5000E406002070B400252E46074C07E0CA1890
:102D6000A0540133082BFAD10135082D02D0334687
:102D7000E900F4E770BC7047A40600200131FF238E
:102D800003FA01F103FA00F020EA0100C0B2704733
:102D90002DE9F04706468A4614461F46DDF8208096
:102DA000DDF82490834201DA3E460746D04502DA38
:102DB0005346C24698464C4502DD23464C4699464A
:102DC00030463946FFF7DAFF214BE20002EB0A01F9
:102DD0005854424498544FEAC90202EB0A0158542D
:102DE00042449854C24517DC55463046294622468F
:102DF000FFF7C6FE304629464A46FFF7C1FE384671
:102E000029462246FFF7BCFE384629464A46FFF7C8
:102E1000B7FE01354545E8DD4C4516DC30465146E8
:102E20002246FFF7ADFE304641462246FFF7A8FE98
:102E3000384651462246FFF7A3FE38464146224611
:102E4000FFF79EFE01344C45E8DDBDE8F08700BF8A
:102E5000E4060020420902F0020242EAD012C3084E
:102E600003F004031343420802F008021343420034
:102E700002F010021343C20002F020021343420189
:102E800002F04002134343EAC010C0B2704700BFD3
:102E9000034B18801A4613889BB2002BFBD1704756
:102EA0005607002070B4094B094A03F140011E681F
:102EB0005D689C68D868166055609460D060103377
:102EC00010328B42F3D170BC704700BFA4060020C3
:102ED000E40600202DE9F84F05468B464FF0000A26
:102EE000D146BBF1FF3F14BFCAF10707574607F1B0
:102EF00001087B1EBBF1FF3F18BF984600262EE05D
:102F00007A2D0BD1304621464246FFF789FE034613
:102F1000304621463A46FFF797FE1AE0792D0BD14D
:102F2000304641462246FFF77BFE0346304639468F
:102F30002246FFF789FE0CE0782D0AD14046214653
:102F40003246FFF76DFE0346384621463246FFF70C
:102F50007BFE0134082CD3D10136082E01D04C461B
:102F6000CEE70AF1010ABAF1080FBAD1BBF1FF3F6F
:102F700014BF002707270026B0461CE07A2D05D194
:102F8000304621463A46FFF723FE0EE0792D05D163
:102F9000304639462246FFF71BFE06E0782D04D165
:102FA000384621463246FFF713FE0134082CE5D19E
:102FB0000136082E01D04446E0E7BDE8F88F00BF97
:102FC0002DE9F04F89B08146884605921B1A129E62
:102FD000139C002BACBF01224FF0FF32029283EA18
:102FE000E372A2EBE3720492761A002EACBF0123C7
:102FF0004FF0FF330393002EB8BF7642059AA41A10
:10300000002CACBF01234FF0FF330193002CB8BF5D
:103010006442049A4FEA420B730000934FEA440A59
:10302000B24233DBA2422EDB9C1AC2EB0A05002A15
:1030300040F38980064600270690DDF8149030465C
:1030400041464A46FFF7B0FD002C03DD039A904449
:10305000CBEB0404002D03DD019B9944CBEB05056C
:10306000009A14445544029B1E440137049A974227
:10307000E5D1CDF81490DDF818909944531E029ACA
:1030800003FB02995FE0049BB34239DCA64237DBC5
:10309000C6EB0B04C6EB0A05002E54DD47460022A2
:1030A0000792CDF810B0CDF818A0DDF800A0CDF84B
:1030B00000809046DDF814B0484639465A46FFF77E
:1030C00073FD002C03DD029B9944CAEB0404002D20
:1030D00003DD019A9344CAEB0505049B1C44069A40
:1030E0001544039B1F4408F10108B045E4D1DDF805
:1030F0000080CDF814B09844013E06FB038822E01E
:10310000009A151BC4EB0B04059F4FF4007648464C
:1031100041463A46FFF748FD002D03DD039B9844E6
:10312000CAEB0505002C03DD029A9144CAEB0404A6
:10313000009B1D445C44019A1744013EE7D1059B66
:1031400003EB4223059348464146059AFFF72CFDC1
:1031500009B0BDE8F08F00BF2DE9F04790B01B4CDF
:103160006E4604F14007354620686168A268E3684E
:103170000FC510342E46BC42F5D10020FFF7D6FD16
:103180006E464FF00008C246C14619E0735D234108
:1031900013F0010F04D0204639464246FFF7F0FCF9
:1031A0000134082CF2D10135082D03D04C46C5F16D
:1031B0000707EBE708F101080836B8F1080F01D05E
:1031C0005546F3E710B0BDE8F08700BFE4060020E5
:1031D0002DE9F04391B0164C6E4604F14007354698
:1031E00020686168A268E3680FC510342E46BC42AF
:1031F000F5D10020FFF79AFD6D464FF00008C1465B
:103200000B4F0DE0285DFFF725FE3319F85401340C
:10321000082CF7D108F101080835B8F1080F03D0E0
:103220004C464FEAC806EDE711B0BDE8F08300BF99
:10323000E4060020F0B490B0134C6E4604F1400751
:10324000354620686168A268E3680FC510342E46D1
:10325000BC42F5D100244FF0070C27460A4E0AE085
:10326000E85C04EBC20170540833013A402BF7D1FB
:103270000134082C04D062463B4600AD2544EFE7FC
:1032800010B0F0BC704700BFE4060020F0B400238B
:103290000125032605FA03F20C681440944238D144
:1032A00007685A0006FA02F4E443274007600768FB
:1032B00091F804C00CFA02FC4CEA070707600F798A
:1032C000013FFFB2012F16D887683C4084608768B1
:1032D0004C7994403C43846047689CB205FA04FCF6
:1032E00027EA0C074760476891F806C00CFA04F417
:1032F000A4B23C434460C7689CB2640006FA04F47C
:1033000027EA0404C460C468CF7907FA02F22243B2
:10331000C2600133102BBDD1F0BC70470369194264
:103320000CBF002001207047006980B2704700BFC9
:10333000406980B2704700BF018370474183704786
:103340004161704710B401F007039B00C90800EB0E
:103350008100046A0F21994024EA01010162016A97
:103360009A40114301625DF8044B7047054B1B699D
:10337000002B05DA034B044A5A6002F188325A6086
:10338000704700BF003C0240230167450E4BDB68DD
:1033900013F4803F12D10C4BDB6813F0100F0FD1E8
:1033A000094BDB6813F0EF0F0CD1074BDB6803F020
:1033B0000203002B0CBF0820072070470120704734
:1033C0000520704706207047003C024000B583B0DE
:1033D00008238DF80730FFF7D9FF8DF807009DF817
:1033E0000730DBB2012B08D1FFF7D0FF8DF80700C3
:1033F0009DF80730DBB2012BF6D09DF8070003B033
:103400005DF804FB70B5054641B1012908D00229D9
:1034100014BF4FF440764FF4007603E0002601E03D
:103420004FF48076FFF7D2FF08281ED10F4C236996
:1034300023F44073236123691E432661236923F02B
:10344000F8032361236943F002031D4325612369C7
:1034500043F480332361FFF7B9FF236923F00203AC
:103460002361236923F0F803236170BD003C02400F
:1034700070B505460E46FFF7A9FF082813D10A4C80
:10348000236923F440732361236943F48073236128
:10349000236943F0010323612E80FFF797FF23691F
:1034A00023F00103236170BD003C02402DE9F04F81
:1034B00083B001908B464FF0FF354FF0000902EBCF
:1034C000050A1BE0013415B90EB9012CFAD04046AB
:1034D00039460AEB0402FFF7A3FB18B109F1010911
:1034E0005FFA89F9012CEDDD0136022E03D00024AC
:1034F00006EB0B07E7E70135022D05D04FF0FF364D
:10350000DDF80480A844F2E7484603B0BDE8F08F38
:103510002DE9F8430020FFF71DFC0026B146B04618
:1035200034E0304629462246FFF7C0FF07463046C2
:1035300029462246FFF774FB012815D1032F05D831
:10354000304629462246FFF757FB14E0042F05D9E1
:10355000304629462246FFF74FFB0CE0304629460D
:103560002246FFF721FB06E0042F04D1304629460E
:103570002246FFF719FB0134082CD2D10135082D62
:1035800001D04446CDE70136082E01D04D46F8E77C
:10359000BDE8F883F0B400273846BC460A4E0B4D10
:1035A0000CE0E218B15CAA5CC9B2914218BF0130CC
:1035B0000133082BF5D10137082F02D06346FC00F8
:1035C000EFE7F0BC704700BFA4060020E40600202F
:1035D00070B5051E0EDD00248EB2FFF799FFFFF7D0
:1035E000D9FF38B1FFF75EFC3046FFF751FC0134DC
:1035F000AC42F2D170BD00BF82B0394BD3F8882005
:1036000042F47002C3F88820364B1A6842F0010277
:103610001A6000229A60196821F0847121F48031C7
:10362000196031495960196821F480211960DA6004
:10363000009201921A6842F480321A601A461368A6
:1036400003F400330193009B01330093019B1BB9EA
:10365000009BB3F5A06FF2D1224B1B6813F4003F1F
:1036600014BF012300230193019B012B32D11D4B79
:103670001A6C42F080521A641C4A116841F480416D
:1036800011609A689A609A6842F400429A609A6857
:1036900042F4A0529A60164A5A601A6842F0807248
:1036A0001A601A46136813F0007FFBD040F20562DF
:1036B000104B1A60A3F580639A6822F003029A60A7
:1036C0009A6842F002029A601A46936803F00C036B
:1036D000082BFAD14FF00062014B9A6002B070479C
:1036E00000ED00E00038024010300024007000407F
:1036F00008544007003C02401E4B9B6803F00C033B
:10370000042B06D0082B08D023BB1B4A1B4B1A6086
:1037100023E01B4A194B1A601FE0164B59685B687F
:1037200003F03F0311F4800F124A5168C1F388116E
:1037300014BF134A104AB2FBF3F202FB01F20D4B25
:103740005B68C3F3014301335B00B2FBF3F20B4B45
:103750001A6002E0084A094B1A60064B9A68C2F3E5
:103760000312064B1A441179C9B21A68CA401A608A
:10377000704700BF003802400024F40060060020BB
:1037800000127A0010B40268134B1340CC680A6828
:1037900014434A6914438A691443CA6914430A6A80
:1037A00014434A6A14438A6A14434A6B14438A6B6B
:1037B000224313430360446924F007040A6BCB6A75
:1037C0001343234343610B6943604B6883608B68F9
:1037D000C3605DF8044B70473F801CF021B1036863
:1037E00043F0010303607047036823F001030360A3
:1037F000704700BFF0B583B004460020FFF796FA8B
:10380000222C00F20682DFE814F0230028002E00AC
:1038100045004B005600590079009B00B900F100AB
:10382000F9000301160142017F01920198019E01F6
:10383000A401AA01AF01B401BF01C501C801D301B0
:103840000402DB01E101E701ED01F301F901FF01F0
:103850004FF47A70FEF740F9DBE1C8201121822293
:10386000FDF72CFED5E105252C4601270026204634
:103870003946FEF7E5F820463146FEF7E1F82046E6
:103880003946FEF7DDF820463146FEF7D9F8013D0E
:10389000EDD1BEE14FF4FA704D21FEF7B5F9B8E174
:1038A0004D23009302207A214FF0FF324FF47A73B8
:1038B000FEF7BCFBADE1FDF70DFDAAE100240126FA
:1038C0002325E2B2304602F0030102F004022B4647
:1038D000FDF75CFD0134502CF3D10C200021FDF7E5
:1038E000A1FD0C200121FDF79DFD0C200021FDF71D
:1038F00099FD0C200121FDF795FD8AE10A257A2723
:103900003224782638462146FDF7B8FC3046214659
:10391000FDF7B4FC79202146FDF7B0FC384621467E
:10392000FDF7ACFC30462146FDF7A8FC7920214686
:10393000FDF7A4FC0020FFF7F9F9013DE2D168E1B1
:103940000A2700263D24FF253046FFF7EFF93046D1
:1039500021462A46FEF754FB304621463246FEF702
:103960004FFB012021462A46FEF74AFB0120214653
:103970002A46FEF745FB013FE6D14AE10A277A26AF
:103980002A254FF4C8743046294622460023FEF704
:10399000A3F93046294622460123FEF79DF9304619
:1039A000294622460023FEF797F93046294622464B
:1039B0000123FEF791F97820294622460023FEF7DD
:1039C0008BF97820294622460123FEF785F97920D4
:1039D000294622460023FEF77FF979202946224610
:1039E0000123FEF779F9013FCDD112E10A245025D8
:1039F0002846FEF759FA013CFAD10AE15023009318
:103A000001207A2102464FF47A73FEF70FFB00E1A2
:103A100002F040FE804A82FB0032C317C3EB620310
:103A200003EB8303C01A00EB40007C4B03EB8000E8
:103A3000FDF7DEFBEDE00020FFF778F9C825784CB4
:103A400002F028FE074602F025FE064602F022FE9E
:103A500017EA040303D5013B63F00303013316EABD
:103A6000040103D5013961F00301013110EA0402B8
:103A700003D5013A62F0030201321846FFF780F8DD
:103A8000013DDDD1C8205021FFF7A2FDC1E00A278A
:103A90007A25002614242846314622460123FEF7C3
:103AA0008BF99620FFF7F4F92846012122460B46B0
:103AB000FEF782F99620FFF7EBF9284631462246B9
:103AC0000223FEF779F99620FFF7E2F92846012153
:103AD00022460223FEF770F99620FFF7D9F97920E4
:103AE000314622460123FEF767F99620FFF7D0F909
:103AF0007920012122460B46FEF75EF99620FFF75A
:103B0000C7F9013FC7D184E002F0C4FD454B83FBF8
:103B10000023A3EBE07303EB4303C31A013340F626
:103B2000C4102D210122DBB2FDF732FD71E014201B
:103B300050210022FEF71CFB6BE04FF47A705021FD
:103B4000FEF7F0FC65E0372002211E22FEF76EFD35
:103B50005FE00A2050210122FEF70AFB59E05020C5
:103B60003149FEF70BFD54E096202821FEF7A6FC14
:103B70004FE05023009301207A214FF0FF324FF4A1
:103B80007A73FEF753FA44E00A2050210222FEF72E
:103B9000EFFA3EE0FEF704FA3BE0502300930120E9
:103BA0007A214FF0FF324FF47A73FEF73FFA30E09C
:103BB00040F6C4102E2101220323FDF7E9FC28E082
:103BC000322001465022FCF79BFC22E042F21070AA
:103BD0000521FCF7B5FE1CE042F210700521FCF750
:103BE00013FE16E042F210700321FCF7CDFA10E04C
:103BF00042F210700321FCF7C7FB0AE042F210709A
:103C00000521FCF799FF04E0322042F21071FEF723
:103C100071FD03B0F0BD00BF6766666620670008EF
:103C200003000080565555556067000810B4C378EE
:103C300013B3184BDB68DB43C3F302234178C3F1B2
:103C40000402D2B201FA02F2D2B2DBB20F21194160
:103C50008478214011430901C9B202780E4B1A44FD
:103C600082F800130278510902F01F02012000FAC5
:103C700002F243F821200AE00378590903F01F03F8
:103C8000012202FA03F32031034A42F821305DF8A1
:103C9000044B704700ED00E000E100E003889BB2B8
:103CA0001E4A904212D002F5806290420ED0B0F1CE
:103CB000804F0BD0A2F58032904207D002F580628F
:103CC000904203D002F58062904203D123F070034A
:103CD0004A881343124A904219D002F580629042FA
:103CE00015D023F440739BB20A89134303804B68B9
:103CF000C3620B880385094B984203D003F58063A8
:103D0000984201D18B7A0386012383827047038016
:103D10004B68C3620B880385F6E700BF00000140D3
:103D20000010004029B103889BB243F08003038058
:103D30007047038823F080031B041B0C038070472B
:103D400029B103889BB243F00103038070470388C5
:103D500023F001031B041B0C0380704770B4038C19
:103D600023F001031B041B0C0384038C8488A4B27E
:103D7000028B22F073021204120C0D882A4323F0E6
:103D800002031B041B0C4E888D893543ADB22B43B7
:103D90000E4DA84203D005F58065A8420ED123F050
:103DA0000803CD892B4323F004038D882B4324F48F
:103DB00040744E8A0D8A3543ADB22C438480028311
:103DC0008A684263038470BC704700BF00000140F2
:103DD00030B4038C23F480731B041B0C0384038C0A
:103DE0008488A4B2828B22F073021204120C0D8814
:103DF0002A4323F400731B041B0C8D8943EA05231B
:103E00004D8843EA05239BB2114DA84203D005F526
:103E10008065A84215D123F400639BB2CD8943EAA3
:103E200005234FF6FF351D408B8845EA03239BB2DF
:103E300024F440540D8A44EA05144D8A44EA0514DA
:103E4000A4B2848082838A68C263038430BC7047D2
:103E500000000140038B23F008031B041B0C1943D3
:103E600001837047838B23F008031B041B0C194349
:103E70008183704722B183899BB219438181704746
:103E800083899BB223EA010181817047038A828979
:103E900092B2194204D011420CBF00200120704799
:103EA00000207047C94389B20182704738B5054682
:103EB0001C4B1B889AB21C4C23889BB22BB94EF624
:103EC000EE63D21A18BF012206E03ABB4EF6EE624C
:103ED000934214BF0022012202F500540234A403CD
:103EE0000132124800EB8232944219D22368B3F1B6
:103EF000FF3F0ED103E02368B3F1FF3F09D1204615
:103F0000FFF7B6FA08280CD1A01C2946FFF7B0FA33
:103F100038BD0434A242EED8802038BDAB2038BD75
:103F2000802038BD0080000800C00008FE7F000827
:103F300008B510200221FFF765FA082809D10548C5
:103F40000021FFF795FA082803D118200221FFF776
:103F500059FA08BD0080000830B4154B1B889BB28D
:103F6000144A128892B283B18AB1AB201EE01A883B
:103F700092B2824204D133F8023C0B80002015E05B
:103F8000043B9C42F3D3012010E0002400E0012414
:103F9000651CAD03084AAB1804F500540234A403B1
:103FA0000234AA5A92B28242EAD1E4E730BC7047A6
:103FB0000080000800C00008FE7F00082DE9F041E5
:103FC000574B1B889BB2574A128892B24EF6EE614D
:103FD0008B4223D04FF6FF718B4203D0002B40F071
:103FE0009B805DE02AB910200221FFF70BFABDE8A3
:103FF000F0814EF6EE639A420CD110200221FFF7B9
:1040000001FA082840F08A8046480021FFF730FA7C
:10401000BDE8F081FFF78CFFBDE8F08162BB424D47
:1040200000244FF6FF76414FDFF808813B889BB2B2
:1040300035F8020B834208BFA6B233B29C420CD0C3
:104040004146FFF789FF012807D035F8020CB8F880
:104050000010FFF72BFF082860D10134032CE5D1B5
:104060002F480021FFF704FA082857D11820022111
:10407000FFF7C8F9BDE8F0814FF6FF739A420BD104
:1040800018200221FFF7BEF9082847D12448002153
:10409000FFF7EEF9BDE8F081FFF74AFFBDE8F081D8
:1040A0001AB9FFF745FFBDE8F0814FF6FF739A425A
:1040B00005D118200221FFF7A5F9BDE8F0811A4DBE
:1040C00000244FF6FF761A4FDFF868803B889BB2DA
:1040D00035F8020B834208BFA6B233B29C420CD023
:1040E0004146FFF739FF012807D035F8020CB8F830
:1040F0000010FFF7DBFE082810D10134032CE5D1B6
:1041000008480021FFF7B4F9082807D11020022140
:10411000FFF778F9BDE8F081FFF70AFFBDE8F0810D
:104120000080000800C00008000000200680000891
:1041300006C000088E0600202DE9F04705460E4611
:10414000FFF7B4FE044680284AD1274B1B889BB258
:10415000264A128892B22BB1002A3ED14FF018089D
:10416000214F02E04FF01008204F38464EF6EE6126
:10417000FFF77EF9082801D0044631E02846314691
:10418000FFF794FE044608282AD1194E06F10609C5
:10419000DFF860A036F8020B85420CD05146FFF7DD
:1041A000DBFE012807D036F8020CBAF80010FFF742
:1041B0007DFE082813D14E45ECD140460221FFF781
:1041C00021F9082801D004460AE038460021FFF70B
:1041D0004FF9082818BF044602E0AB2400E004466B
:1041E0002046BDE8F08700BF0080000800C000083E
:1041F000000000208E06002000B553EC102B264A4C
:1042000023F00043934285B022DD244A93420BDD24
:1042100051EC100B10EE102A0B4601F067FD41EC3B
:10422000100B05B05DF804FB684600F02DF900F0B6
:10423000030001289DED000B9DED021B20D00228FC
:1042400011D000B3012001F01FF951EC100BE6E78B
:104250009FED0F1B00F00CFC51EC100B41EC100B10
:1042600005B05DF804FB00F003FC53EC102B10EEDE
:10427000100A03F1004141EC100B05B05DF804FB9E
:1042800001F002F9F1E700F0F3FB51EC100BC6E787
:104290000000000000000000FB21E93FFFFFEF7F6E
:1042A00000B553EC102B284A23F00043934285B00D
:1042B00029DD264A93420BDD51EC100B10EE102A3B
:1042C0000B4601F013FD41EC100B05B05DF804FB4B
:1042D000684600F0D9F800F0030001289DED000BBE
:1042E0009DED021B1FD0022819D008B300F0C0FBBF
:1042F00053EC102B10EE100A03F1004141EC100BAF
:1043000005B05DF804FB9FED0E1B002001F0BCF82A
:1043100051EC100B41EC100B05B05DF804FB0120D3
:1043200001F0B2F8E4E700F0A3FB51EC100BCAE790
:10433000012001F0A9F851EC100BC4E7AFF30080A5
:104340000000000000000000FB21E93FFFFFEF7FBD
:1043500000B553EC102B1A4A23F00043934285B06A
:104360001FDD184A93420BDD51EC100B10EE102AA2
:104370000B4601F0BBFC41EC100B05B05DF804FBF3
:10438000684600F081F800F001004000C0F1010033
:104390009DED000B9DED021B01F03EF905B05DF8AF
:1043A00004FB9FED051B012001F036F905B05DF817
:1043B00004FB00BFAFF3008000000000000000001D
:1043C000FB21E93FFFFFEF7F70B52DED048BB0EED1
:1043D000408AF0EE608A294E8AB000F07DFA96F9A4
:1043E0000030B0EE409AF0EE609A01330FD0B0EE9C
:1043F000480AF0EE680A01F0A7FB40B1002400254E
:1044000051EC180B22462B4602F096F838B9B0EE64
:10441000490AF0EE690A0AB0BDEC048B70BD184B76
:1044200036780193012200238DED048B8DED028BF4
:10443000009208936EB9CDE90645684601F0AEFBDF
:1044400088B1089BA3B99DED060B0AB0BDEC048BA7
:1044500070BD2046294622462B4601F025FF022E3C
:10446000CDE90601E9D102F007F921230360E8E76D
:1044700002F002F9089B0360E5E700BF7406002024
:1044800068670008000000002DE9F04F5BEC10ABFE
:10449000994B2BF000479F4291B0804640F38680B5
:1044A000964B9F4229DCBBF1000F51EC100B88A307
:1044B000D3E9002340F3A68101F018FC904B9F4202
:1044C00004460D4600F08A8083A3D3E9002301F05F
:1044D0000DFC02460B46C8E900232046294601F0A0
:1044E00005FC7DA3D3E9002301F000FC0126C8E907
:1044F0000201304611B0BDE8F08F824B9F4240F37D
:104500008A80814B9F425CDC4FEA2759A9F2164909
:10451000A7EB095351EC100B19461F4602F034F873
:1045200001F032FD04460D4622462B4639465046E0
:10453000CDE90A4501F0DAFB0022744B01F08AFD57
:104540000F46064602F020F801F01EFD04460D4617
:1045500022462B4630463946CDE90C4501F0C6FBD4
:1045600000226A4B01F076FD00220023CDE90E0106
:1045700001F0D8FF002800F0718100232046294671
:10458000002201F0CFFF002814BF012302230222E2
:104590005F49009201914A460AA8414600F0A8FBF3
:1045A000BBF1000FC0F24C81064606E0002200235A
:1045B00088ED000BC0E902230026304611B0BDE8AB
:1045C000F08F51EC100B10EE102A0B4601F08EFB11
:1045D0000026C8E90201C8E90001EEE740A3D3E9DB
:1045E000002301F083FB40A3D3E9002304460D46DA
:1045F00001F07CFB02460B46C8E900232046294611
:1046000001F074FB38A3D3E9002301F06FFB01260E
:10461000C8E90201D1E701F0EFF955EC104B10EEBB
:10462000100A33A3D3E90023294601F013FD002229
:10463000384B01F05DFB01F0A7FF064601F0A4FC3A
:1046400023A3D3E90023CDE9060101F003FD0246CF
:104650000B462046294601F049FB1FA3D3E900235E
:10466000CDE90201DDE9060101F0F4FC1F2ECDE9E0
:104670000401DDE9020151DC274B721E53F82230A0
:10468000BB424BD0DDE9042301F030FB04460D466C
:10469000C8E9004522462B46DDE9020101F026FB70
:1046A000DDE9042301F022FBBBF1000FC8E90201A0
:1046B00083DA274601F1004305F100447642C8F849
:1046C0000070C8F80440C8F80800C8F80C3074E757
:1046D00000004054FB21F93F3163621A61B4D03DC0
:1046E0000000601A61B4D03D7370032E8A19A33B99
:1046F00083C8C96D305FE43FFB21E93F7BD90240AD
:10470000FB21F93FFB213941FFFFEF7F00007041A2
:10471000F06700080000E03F70670008DDE904234F
:1047200001F0E4FA3F15C1F30A53FB1A04460D46A3
:10473000102BC8E90045ADDD5DA3D3E90023DDE919
:10474000060101F087FC04460D4622462B46DDE9B2
:10475000020101F0CBFACDE90801DDE90823DDE92A
:10476000020101F0C3FA22462B4601F0BFFA52A320
:10477000D3E9002304460D46DDE9060101F06AFC99
:1047800022462B4601F0B2FACDE90401DDE904230B
:10479000DDE9080101F0AAFAC1F30A53FF1A044641
:1047A0000D46312FC8E9004578DD46A3D3E9002343
:1047B000DDE9060101F04EFC04460D4622462B467B
:1047C000DDE9080101F092FACDE90201DDE90223F9
:1047D000DDE9080101F08AFA22462B4601F086FA4B
:1047E0003AA3D3E9002304460D46DDE9060101F0B2
:1047F00031FC22462B4601F079FACDE90401DDE9CE
:1048000002013FE701F074FA2D4B9F4204460D462A
:1048100026D025A3D3E9002301F06AFA02460B460D
:10482000C8E900232046294601F060FA1EA3D3E917
:10483000002301F05DFA4FF0FF36C8E90201BCE643
:10484000D8F80420D8F80C3002F1004203F10043FC
:104850004642C8F80420C8F80C30AEE6032396E6BA
:1048600013A3D3E9002301F043FA13A3D3E90023F0
:1048700004460D4601F03CFA02460B46C8E9002307
:104880002046294601F032FA0BA3D3E9002301F0B8
:104890002FFA4FF0FF36C8E902018EE69DED087B46
:1048A0008DED027BF6E600BF3163621A61B4D03D44
:1048B0000000601A61B4D03D7370032E8A19A33BC7
:1048C000FB21F93F0000002E8A19A33BC149202596
:1048D0009A837B39AFF300802DE9F84353EC102B1A
:1048E00023F00044240D614D2405AC422DED028BD4
:1048F000B0EE408AF0EE608A194610EE100A00F021
:104900009480002B74DD1F157DD0A7F2FF37C1F313
:104910001301FA0741F480115FD4C30F4FF0000C6C
:1049200003EB410342007F10654616204FF400114F
:104930006C189C424FEAD2764FEA420202DC1B1B03
:1049400065188C44013806EB43034FEA5101EFD15F
:10495000804620264FF0004109E023D0D40F013ECD
:104960004FEA510104EB43034FEA42021ED0AB422F
:1049700001EB0804F1DD04F00049B9F1004F04EB4C
:10498000010809D0A9465B1B944288BF03F1FF339D
:10499000121B08444D46E1E7B8F1000FF2DB05F1C8
:1049A0000109F0E79442E6D91D46D7E71A4319D129
:1049B00046084FEA6C0101F17F511CF0010F01F52F
:1049C000001118BF46F0004601EB0753324643EC96
:1049D000102BBDEC028BBDE8F883C30F03EB410144
:1049E00040009AE7431C2ED000F001031844DFE793
:1049F00023F000411143ECD063BB1F46C10A153FB1
:104A000040050029FAD011F480131FD14900CC02CF
:104A100003F10103FAD5C3F10102C3F1200420FA26
:104A200004F42143174498406FE751EC100B01F058
:104A300011FB53EC182B01F05BF9BDEC028B41EC40
:104A4000100BBDE8F8830CF1010CB2E72024012221
:104A50000023E4E751EC100B0B4601F047F9024646
:104A60000B4601F021FC41EC100BB2E70000F07F97
:104A70002DE9F04F57EC106B2DED028BB0EE418A13
:104A8000F0EE618A27F00048B8F1795F83B010EE4C
:104A9000100A39466FDA01F077FD002800F0F38044
:104AA00032463B463046394601F0D4FA7AA3D3E980
:104AB000002304460D4601F0CDFA79A3D3E9002383
:104AC00001F016F922462B4601F0C4FA76A3D3E989
:104AD000002301F00BF922462B4601F0BBFA74A328
:104AE000D3E9002301F004F922462B4601F0B2FA83
:104AF00071A3D3E9002301F0F9F822462B4601F017
:104B0000A9FA6FA3D3E9002301F0F2F822462B465D
:104B100001F0A0FA82468B462046294600226E4BC1
:104B200001F098FA5246804689465B46204629465F
:104B300001F090FA53EC182B04460D4630463946E6
:104B400001F088FA02460B462046294601F0CEF8CD
:104B500002460B464046494601F0C8F802460B465D
:104B600000205E4901F0C2F841EC100B03B0BDEC2F
:104B7000028BBDE8F08F10EE102A3B4601F06AFA76
:104B800045A3D3E9002304460D4601F063FA44A38C
:104B9000D3E9002301F0ACF822462B4601F05AFA83
:104BA00041A3D3E9002301F0A1F822462B4601F0EE
:104BB00051FA3FA3D3E9002301F09AF822462B468D
:104BC00001F048FA3CA3D3E9002301F08FF8224614
:104BD0002B4601F03FFA3AA3D3E9002301F088F80D
:104BE0002B46224601F036FA3D4B984582468B46CD
:104BF00092DD3C4B98453DDCA8F5001300220020D7
:104C000036499046994601F071F8CDE900012046F9
:104C100029460022304B01F01DFA42464B4601F076
:104C200065F85246804689465B462046294601F093
:104C300011FA53EC182B04460D463046394601F064
:104C400009FA02460B462046294601F04FF8024673
:104C50000B464046494601F049F802460B46DDE95D
:104C6000000101F043F841EC100B03B0BDEC028BE6
:104C7000BDE8F08F9FED147B4FF000088DED007BB9
:104C8000DFF86490C3E79FED120B03B0BDEC028B1D
:104C9000BDE8F08FAFF30080D43888BEE9FAA8BD34
:104CA000C4B1B4BD9EEE213EAD529C804F7E923E7B
:104CB0009015CB19A001FA3E7751C1166CC1563F31
:104CC0004C5555555555A53F000000000000E73FE5
:104CD000000000000000F03F0000E03F0000F03F57
:104CE0003233D33F0000E93F0000D23FAFF30080F2
:104CF0002DE9F04FADF51B7D1B4CA49E1B4D54F8C8
:104D000026400A94D41E85FB0465E417C4EBA50471
:104D100024EAE4740C949B460490E34309910C98B4
:104D20000A990BF1FF3403EB4303069402EBC30330
:104D3000061B641808931BD4A598344401340DF164
:104D4000880800EB8605002709E0E85901F01CF906
:104D50000136A642E8E8020107F1040708D0002E58
:104D6000F3DA00200021F3E7F8680008ABAAAA2ACA
:104D70000A9C002C2BDB0A9C74AE22A806EBC4060E
:104D800000EBCB0903960DF5E478069C002CC0F2ED
:104D90007781DDF810A04F4600240025002677E932
:104DA0000223FAE8020101F055F902460B462046BB
:104DB000294600F09DFF01365E4504460D46EED1C2
:104DC000E8E80245039EB04509F10809DDD10A9ED5
:104DD00003960EAC029404EB86040D94039E9AABEA
:104DE0004FEAC6094B44002E53E928452BDD0DF14F
:104DF000340A72A989440AEB860A0DF134080022AC
:104E0000A94B2046294601F025F901F0BDFB01F030
:104E1000BBF80022A54B06460F4601F01BF90246DF
:104E20000B462046294600F061FF01F0ADFB79E911
:104E3000022348F8040F3946304600F059FFD045A8
:104E400004460D46DBD145EC104B089800F0A8FE57
:104E500055EC104B00224FF07F5310EE100A2946FC
:104E600001F0F8F841EC100B00F0D2FD002251ECFB
:104E7000100B8F4B01F0EEF802460B4620462946F8
:104E800000F034FF04460D4601F07EFB804601F041
:104E90007BF802460B462046294600F027FF089C77
:104EA000002C06460F4640F3B980039C0EAA611EF3
:104EB000089C52F82130C4F1180043FA00F2C4F102
:104EC000170502FA00F00EAC1B1A44F8213090448A
:104ED00043FA05F5002D2BDD039C002C08F1010899
:104EE00040F3D9800EAB03EB8400002453F8041B7D
:104EF000C1F1FF1202F57F4214B9C1F1807211B104
:104F000043F8042C01248342F0D1089800280DDDD9
:104F1000012800F0A480022808D103990EA84B1E96
:104F200050F82320C2F3150240F82320022D7DD033
:104F3000304639460022002301F0F4FA002800F040
:104F4000BD80039C0A9E04F1FF394E450DDC0EA87E
:104F500000EB84030D98002253F8041D834242EABB
:104F60000102F9D1002A40F04A820A9C0EAE621E6C
:104F700056F82230002B40F0408206EB82020123DB
:104F800052F8041D01330029FAD0039C039E1C44EF
:104F900006F1010AA2450B943DDC0C9C0B9BDDF84D
:104FA0001890B046A59EA044234472ACD14422A8D8
:104FB00004EBCA0406EB830306EB880800EBC9097F
:104FC0000394079358F8040F00F0DEFF069E002EAE
:104FD000E9E802014FF000044FF0000514DBDDF8B2
:104FE00010A04F46002677E90223FAE8020101F0FB
:104FF00031F802460B462046294600F079FE01367C
:105000005E4504460D46EED1039EE6E80245079C48
:105010000396A045D6D10B9E0396DFE629D1039CCB
:105020000EA8631E50F82350ED1553E732463B4659
:105030000020204900F05AFE06460F46002C3FF49F
:1050400077AF08989FED160B00F0AAFD3046394661
:1050500053EC102B00F04AFE06460F4668E7039912
:105060000EA84B1E50F82320C2F3160240F823204E
:105070005CE70022104B01F073FA20B9054657E7B0
:10508000002400259CE6039C002C4FF0020508F14B
:1050900001083FF727AF002437E700BFAFF30080D8
:1050A000000000000000F03F0000703E0000704172
:1050B000000020400000F03F0000E03F47EC106B94
:1050C000089E06957042CDF81C8000F069FD55ECF5
:1050D000104B10EE100A29460022B14B01F040FAA5
:1050E000002800F0B8810022AE4B2046294600F08F
:1050F000B1FF01F049FA064600F046FF0022A84B36
:1051000000F0A8FF02460B462046294600F0EEFDBF
:1051100001F03AFA039C04F10109089C18340EA925
:105120000894039C41F8240041F8296008989FEDF9
:105130009A0B00F035FDB9F1000F55EC104B56DB22
:1051400009F101060EA872A9039600EB860701EB90
:10515000C60657F8040D00F017FF22462B4600F054
:1051600079FF002266E902018E4B2046294600F0B5
:1051700071FF029A974204460D46EAD172AB03EBE7
:10518000C90B0DF5947ACDF82090DDF82890CDF874
:1051900010A04FF00008B9F1000FC0F22981DFF82C
:1051A00008A25F4600240025002601E0464510DCE9
:1051B000F7E80223FAE8020100F04CFF02460B4632
:1051C0002046294600F094FD0136B14504460D46BF
:1051D000ECDA049E06EBC803C3E90045039C08F122
:1051E00001084445ABF1080BD5D1DDF82090A49E11
:1051F000032E00F28C80DFE816F0D90091009100B8
:105200000400B9F1000F40F312810DF5947A4FEAD2
:10521000C90B0AEB0B03D3E9006709F101030AEBA1
:10522000C303039398460DF5987C01E026462F466C
:1052300018ED047B324651EC170B3B46CDF804C009
:105240008DED047B00F054FD04460D4622462B46AE
:10525000DDE9040100F04AFD32463B4600F048FD1E
:1052600068E90201DDF804C0E04548E90245DDD106
:10527000B9F1010F40F30381DDF80CC0CDF810A0A7
:10528000D344DBE900450AF1100BE24601E0344665
:105290003D465AE9048922462B464046494600F0DD
:1052A00027FD06460F4632463B464046494600F03B
:1052B0001DFD22462B4600F01BFD6AE90201DA457E
:1052C0004AE90267E3D1DDF810A0039C0020002129
:1052D00074E9022300F00CFDA345F9D1069C002CD3
:1052E00000F0AD80099EDAF80450DAF80C40DAF8E4
:1052F0000020DAF80830326005F1004504F100447E
:1053000001F100427560F460B36030617261079C26
:1053100004F007000DF51B7DBDE8F08FB9F1000F1B
:105320004FF000004FF000010DF5947A09DB09F110
:1053300001040AEBC40474E9022300F0D9FC5445CB
:10534000F9D1069C0246002C55D001F10043099E7C
:10535000C6E9002302460B46DAE9000100F0C6FC6C
:10536000B9F1000F08DD4CAC04EBC909F4E80223E5
:1053700000F0BEFC4C45F9D1069C0246002C74D0CE
:10538000099E01F10043C6E90223079C04F00700CF
:105390000DF51B7DBDE8F08F000000000000F03F20
:1053A000000070410000703E08690008B9F1000F6C
:1053B0004FF000004FF000010ADB09F101044AAD93
:1053C00005EBC40474E9022300F092FCAC42F9D16D
:1053D000069C0246002C4DD0099E01F10043C6E90F
:1053E0000023079C04F007000DF51B7DBDE8F08F3E
:1053F00000240025EDE60B46A9E70123C5E50EAE26
:10540000089C56F82930CDF81C80183C0695089465
:10541000002B7FF48BAE06EB8903224653F8041D64
:1054200009F1FF39183A0029F8D008927EE6069C67
:10543000002000210DF5947A002C7FF453AFDAE9B7
:105440000045DAE90223099EC6E90401C6E90045E0
:10545000C6E902235BE72046294601F095F80EAE27
:10546000039C46F82400A14660E6099E0B46C6E967
:1054700002238AE7099E0B46C6E90023B1E7002014
:1054800000212BE7AFF300802DE9F04F55EC104BD6
:105490002DED028BB0EE418AF0EE618A25F00043DB
:1054A000B3F1795F83B0824607DA10EE100A29461D
:1054B00001F06AF8002800F08C8022462B46204636
:1054C000294600F0C7FD22462B4606460F4600F04F
:1054D000C1FD46A3D3E900238046894630463946BC
:1054E00000F0B8FD43A3D3E9002300F0FFFB3246F0
:1054F0003B4600F0AFFD41A3D3E9002300F0F8FBE9
:1055000032463B4600F0A6FD3EA3D3E9002300F05F
:10551000EDFB32463B4600F09DFD3CA3D3E9002362
:1055200000F0E6FBCDE90001BAF1000F37D051ECF5
:10553000180B00222C4B00F08DFDDDE90023824684
:105540008B464046494600F085FD02460B465046D4
:10555000594600F0CBFB32463B4600F07BFD53EC56
:10556000182B00F0C3FB1EA3D3E9002306460F4609
:105570004046494600F06EFD02460B46304639462D
:1055800000F0B6FB02460B462046294600F0AEFB73
:1055900041EC100B03B0BDEC028BBDE8F08FDDE9F0
:1055A00000233046394600F055FD0DA3D3E9002312
:1055B00000F09CFB42464B4600F04CFD22462B4639
:1055C00000F096FB41EC100B03B0BDEC028BBDE884
:1055D000F08F45EC104B03B0BDEC028BBDE8F08FB3
:1055E000495555555555C53F0000E03F7CD5CF5A2C
:1055F0003AD9E53DEB9C2B8AE6E55A3E7DFEB15754
:10560000E31DC73ED561C119A0012A3FA6F81011BC
:105610001111813FAFF300802DE9F04F89B08DED7E
:10562000020B039A124B22F000469E4259EC108B5B
:1056300007468DED001B1FDC10EE100A494600F0F6
:10564000A3FF00283BD17B1C46EA0806334300F049
:10565000AF81012F00F0C88142464B46002005492A
:1056600000F022FE41EC100B09B0BDE8F08F00BF46
:10567000FFFF2F3E0000F0BFA94B9E421FDD039BA2
:10568000002BC0F2A28142464B4685A1D1E9000120
:1056900000F02CFBDDE9002304460D4682A1D1E990
:1056A000000100F023FB9FED827B02460B46204663
:1056B00029468DED007B00F01BFB80468946424663
:1056C0004B464046494600F0C5FC02460B46824622
:1056D0008B4600F0BFFC424604460D4650465946F4
:1056E0004B4600F0B7FC74A3D3E90023CDE90401D5
:1056F0002046294600F0AEFC71A3D3E9002300F058
:10570000F7FA22462B4600F0A5FC6FA3D3E900234D
:1057100000F0EEFA22462B4600F09CFC6CA3D3E985
:10572000002300F0E5FA22462B4600F093FC6AA322
:10573000D3E9002300F0DCFA22462B4600F08AFC75
:1057400067A3D3E9002300F0D3FA67A3D3E90023CA
:10575000CDE906012046294600F07CFC64A3D3E98C
:10576000002300F0C5FA22462B4600F073FC62A32A
:10577000D3E9002300F0BCFA22462B4600F06AFC75
:105780005FA3D3E9002300F0B3FA22462B4600F0D2
:1057900061FC5DA3D3E9002300F0AAFA22462B4660
:1057A00000F058FC5AA3D3E9002300F0A1FA5246B6
:1057B0005B4600F04FFC02460B46DDE9060100F0B7
:1057C00097FADDE9042300F045FCDDE9002300F051
:1057D0008FFA52465B4600F03DFCDDE9002300F005
:1057E00087FA4DA3D3E9002304460D46DDE9040101
:1057F00000F030FC22462B4600F07AFACDE9000199
:10580000DDE900234046494600F072FA444B9E42CF
:1058100082468B4600F38A80012F00F0E2805246D8
:105820005B4600203F4900F03FFD4FF0000A0F4665
:10583000064642464B4650465946CDE902AB00F07B
:1058400055FA02460B46DDE9000100F04FFA024628
:105850000B465046394600F0FDFB5446DDE9022375
:1058600082468B462046394600F0F4FB00222E4B40
:1058700000F03EFA02460B465046594600F038FA10
:1058800032463B4600F0E6FB22463B4600F030FA4B
:1058900041EC100B09B0BDE8F08F00BFAFF3008002
:1058A000182D4454FB21E93F075C143326A6813CA4
:1058B0000000000000000000735360DBCB75F3BEF6
:1058C000A69237A0887E143F0165F2F2D844433F88
:1058D000280356C9226D6D3F37D60684F464963F7F
:1058E0007AFE10111111C13FD47ABF74702AFB3EA9
:1058F000E9A7F0320FB8123F68108D1AF726303F33
:105900001583E0FEC8DB573F93846EE9E326823FB0
:10591000FE41B31BBAA1AB3F635555555555D53F15
:105920002794E53F0000F0BF0000F03F384600F04C
:105930002BFB039A0646901700F00200C0F101000D
:105940000F4600F021FB5246CDE902015B4650466E
:10595000594600F07FFB324604460D463B46504612
:10596000594600F0C5F902460B462046294600F08C
:105970009BFCDDE9002300F0B9F902460B464046E6
:10598000494600F0B3F902460B4600F0B1F9024671
:105990000B463046394600F0A9F902460B46DDE9D0
:1059A000020100F057FB41EC100B09B0BDE8F08F8D
:1059B00049EC108B00F020F8002053EC102B0C4920
:1059C00000F072FC41EC100B64E7019C009A09F1B5
:1059D000004104F1004310EE108A8946CDE900230E
:1059E00051E64BEC10AB55E749EC108B52E700BF8A
:1059F0000000F03FAFF3008051EC100B53EC102B84
:105A000021F0004343EC102B704700BF0000000062
:105A10002DE9F84F55EC104BC5F30A57A7F2FF36A6
:105A2000132EA946AA4610EE108A1FDC002E4CDB6E
:105A3000434F374107EA0503234315D03EA3D3E97B
:105A4000002351EC100B00F053F90022002300F06A
:105A500091FD28B1002D4BDB2AEA07094FF0000821
:105A60004B46424643EC102BBDE8F88F332E0CDD3D
:105A7000B6F5806FF8D151EC100B22460B4600F0C2
:105A800037F941EC100BBDE8F88FA7F213434FF044
:105A9000FF3B2BFA03FB1BEA040FE5D026A3D3E957
:105AA000002351EC100B00F023F90022002300F03A
:105AB00061FD0028D4D0002D21DB28EA0B08D14657
:105AC0004B46424643EC102BCEE71BA3D3E9002301
:105AD00051EC100B00F00CF90022002300F04AFDFD
